{
  "contractName": "MasterChef",
  "abi": [
    {
      "inputs": [
        {
          "internalType": "address[]",
          "name": "_lib",
          "type": "address[]"
        },
        {
          "internalType": "address",
          "name": "_devaddr",
          "type": "address"
        },
        {
          "internalType": "address",
          "name": "_uniRouter",
          "type": "address"
        },
        {
          "internalType": "uint256",
          "name": "_startBlock",
          "type": "uint256"
        }
      ],
      "stateMutability": "nonpayable",
      "type": "constructor"
    },
    {
      "anonymous": false,
      "inputs": [
        {
          "indexed": true,
          "internalType": "address",
          "name": "user",
          "type": "address"
        },
        {
          "indexed": true,
          "internalType": "uint256",
          "name": "pid",
          "type": "uint256"
        },
        {
          "indexed": false,
          "internalType": "uint256",
          "name": "amount",
          "type": "uint256"
        }
      ],
      "name": "Deposit",
      "type": "event"
    },
    {
      "anonymous": false,
      "inputs": [
        {
          "indexed": true,
          "internalType": "address",
          "name": "user",
          "type": "address"
        },
        {
          "indexed": true,
          "internalType": "uint256",
          "name": "pid",
          "type": "uint256"
        },
        {
          "indexed": false,
          "internalType": "uint256",
          "name": "amount",
          "type": "uint256"
        }
      ],
      "name": "EmergencyWithdraw",
      "type": "event"
    },
    {
      "anonymous": false,
      "inputs": [
        {
          "indexed": true,
          "internalType": "address",
          "name": "previousOwner",
          "type": "address"
        },
        {
          "indexed": true,
          "internalType": "address",
          "name": "newOwner",
          "type": "address"
        }
      ],
      "name": "OwnershipTransferred",
      "type": "event"
    },
    {
      "anonymous": false,
      "inputs": [
        {
          "indexed": true,
          "internalType": "address",
          "name": "user",
          "type": "address"
        },
        {
          "indexed": true,
          "internalType": "uint256",
          "name": "pid",
          "type": "uint256"
        },
        {
          "indexed": false,
          "internalType": "uint256",
          "name": "amount",
          "type": "uint256"
        }
      ],
      "name": "Withdraw",
      "type": "event"
    },
    {
      "inputs": [],
      "name": "chef",
      "outputs": [
        {
          "internalType": "address",
          "name": "",
          "type": "address"
        }
      ],
      "stateMutability": "view",
      "type": "function"
    },
    {
      "inputs": [],
      "name": "devaddr",
      "outputs": [
        {
          "internalType": "address",
          "name": "",
          "type": "address"
        }
      ],
      "stateMutability": "view",
      "type": "function"
    },
    {
      "inputs": [],
      "name": "lib",
      "outputs": [
        {
          "internalType": "contract LibToken",
          "name": "",
          "type": "address"
        }
      ],
      "stateMutability": "view",
      "type": "function"
    },
    {
      "inputs": [],
      "name": "libPerBlock",
      "outputs": [
        {
          "internalType": "uint256",
          "name": "",
          "type": "uint256"
        }
      ],
      "stateMutability": "view",
      "type": "function"
    },
    {
      "inputs": [],
      "name": "migrator",
      "outputs": [
        {
          "internalType": "contract IMigratorChef",
          "name": "",
          "type": "address"
        }
      ],
      "stateMutability": "view",
      "type": "function"
    },
    {
      "inputs": [],
      "name": "owner",
      "outputs": [
        {
          "internalType": "address",
          "name": "",
          "type": "address"
        }
      ],
      "stateMutability": "view",
      "type": "function"
    },
    {
      "inputs": [
        {
          "internalType": "uint256",
          "name": "",
          "type": "uint256"
        }
      ],
      "name": "poolInfo",
      "outputs": [
        {
          "internalType": "contract IBEP20",
          "name": "lpToken",
          "type": "address"
        },
        {
          "internalType": "uint256",
          "name": "allocPoint",
          "type": "uint256"
        },
        {
          "internalType": "uint256",
          "name": "lastRewardBlock",
          "type": "uint256"
        },
        {
          "internalType": "uint256",
          "name": "accLibPerShare",
          "type": "uint256"
        },
        {
          "internalType": "bool",
          "name": "isLibrePair",
          "type": "bool"
        }
      ],
      "stateMutability": "view",
      "type": "function"
    },
    {
      "inputs": [],
      "name": "renounceOwnership",
      "outputs": [],
      "stateMutability": "nonpayable",
      "type": "function"
    },
    {
      "inputs": [
        {
          "internalType": "address",
          "name": "chef",
          "type": "address"
        }
      ],
      "name": "setChef",
      "outputs": [],
      "stateMutability": "nonpayable",
      "type": "function"
    },
    {
      "inputs": [],
      "name": "startBlock",
      "outputs": [
        {
          "internalType": "uint256",
          "name": "",
          "type": "uint256"
        }
      ],
      "stateMutability": "view",
      "type": "function"
    },
    {
      "inputs": [],
      "name": "totalAllocPoint",
      "outputs": [
        {
          "internalType": "uint256",
          "name": "",
          "type": "uint256"
        }
      ],
      "stateMutability": "view",
      "type": "function"
    },
    {
      "inputs": [
        {
          "internalType": "address",
          "name": "newOwner",
          "type": "address"
        }
      ],
      "name": "transferOwnership",
      "outputs": [],
      "stateMutability": "nonpayable",
      "type": "function"
    },
    {
      "inputs": [
        {
          "internalType": "uint256",
          "name": "",
          "type": "uint256"
        },
        {
          "internalType": "address",
          "name": "",
          "type": "address"
        }
      ],
      "name": "userInfo",
      "outputs": [
        {
          "internalType": "uint256",
          "name": "amount",
          "type": "uint256"
        },
        {
          "internalType": "uint256",
          "name": "rewardDebt",
          "type": "uint256"
        }
      ],
      "stateMutability": "view",
      "type": "function"
    },
    {
      "inputs": [],
      "name": "poolLength",
      "outputs": [
        {
          "internalType": "uint256",
          "name": "",
          "type": "uint256"
        }
      ],
      "stateMutability": "view",
      "type": "function"
    },
    {
      "inputs": [
        {
          "internalType": "uint256",
          "name": "_allocPoint",
          "type": "uint256"
        },
        {
          "internalType": "contract IBEP20",
          "name": "_lpToken",
          "type": "address"
        },
        {
          "internalType": "address[]",
          "name": "_lpPath",
          "type": "address[]"
        },
        {
          "internalType": "bool",
          "name": "_withUpdate",
          "type": "bool"
        },
        {
          "internalType": "bool",
          "name": "_isLibrePair",
          "type": "bool"
        }
      ],
      "name": "add",
      "outputs": [],
      "stateMutability": "nonpayable",
      "type": "function"
    },
    {
      "inputs": [
        {
          "internalType": "uint256",
          "name": "_pid",
          "type": "uint256"
        },
        {
          "internalType": "uint256",
          "name": "_allocPoint",
          "type": "uint256"
        },
        {
          "internalType": "bool",
          "name": "_withUpdate",
          "type": "bool"
        }
      ],
      "name": "set",
      "outputs": [],
      "stateMutability": "nonpayable",
      "type": "function"
    },
    {
      "inputs": [
        {
          "internalType": "contract IMigratorChef",
          "name": "_migrator",
          "type": "address"
        }
      ],
      "name": "setMigrator",
      "outputs": [],
      "stateMutability": "nonpayable",
      "type": "function"
    },
    {
      "inputs": [
        {
          "internalType": "uint256",
          "name": "_pid",
          "type": "uint256"
        }
      ],
      "name": "migrate",
      "outputs": [],
      "stateMutability": "nonpayable",
      "type": "function"
    },
    {
      "inputs": [
        {
          "internalType": "uint256",
          "name": "_from",
          "type": "uint256"
        },
        {
          "internalType": "uint256",
          "name": "_to",
          "type": "uint256"
        }
      ],
      "name": "getMultiplier",
      "outputs": [
        {
          "internalType": "uint256",
          "name": "",
          "type": "uint256"
        }
      ],
      "stateMutability": "view",
      "type": "function"
    },
    {
      "inputs": [
        {
          "internalType": "uint256",
          "name": "_pid",
          "type": "uint256"
        },
        {
          "internalType": "address",
          "name": "_user",
          "type": "address"
        }
      ],
      "name": "pendingLib",
      "outputs": [
        {
          "internalType": "uint256",
          "name": "",
          "type": "uint256"
        }
      ],
      "stateMutability": "view",
      "type": "function"
    },
    {
      "inputs": [],
      "name": "massUpdatePools",
      "outputs": [],
      "stateMutability": "nonpayable",
      "type": "function"
    },
    {
      "inputs": [
        {
          "internalType": "uint256",
          "name": "_pid",
          "type": "uint256"
        }
      ],
      "name": "updatePool",
      "outputs": [],
      "stateMutability": "nonpayable",
      "type": "function"
    },
    {
      "inputs": [
        {
          "internalType": "uint256",
          "name": "_amount",
          "type": "uint256"
        }
      ],
      "name": "stake",
      "outputs": [],
      "stateMutability": "nonpayable",
      "type": "function"
    },
    {
      "inputs": [
        {
          "internalType": "uint256",
          "name": "_amount",
          "type": "uint256"
        }
      ],
      "name": "unstake",
      "outputs": [],
      "stateMutability": "nonpayable",
      "type": "function"
    },
    {
      "inputs": [
        {
          "internalType": "uint256",
          "name": "_pid",
          "type": "uint256"
        },
        {
          "internalType": "uint256",
          "name": "_amount",
          "type": "uint256"
        }
      ],
      "name": "deposit",
      "outputs": [],
      "stateMutability": "nonpayable",
      "type": "function"
    },
    {
      "inputs": [
        {
          "internalType": "uint256",
          "name": "_pid",
          "type": "uint256"
        },
        {
          "internalType": "uint256",
          "name": "_amount",
          "type": "uint256"
        }
      ],
      "name": "withdraw",
      "outputs": [],
      "stateMutability": "nonpayable",
      "type": "function"
    },
    {
      "inputs": [
        {
          "internalType": "uint256",
          "name": "_pid",
          "type": "uint256"
        }
      ],
      "name": "emergencyWithdraw",
      "outputs": [],
      "stateMutability": "nonpayable",
      "type": "function"
    },
    {
      "inputs": [
        {
          "internalType": "address",
          "name": "_devaddr",
          "type": "address"
        }
      ],
      "name": "dev",
      "outputs": [],
      "stateMutability": "nonpayable",
      "type": "function"
    }
  ],
  "bytecode": "0x6080604052670de0b6b3a764000060045560006009553480156200002257600080fd5b5060405162004bff38038062004bff833981810160405260808110156200004857600080fd5b81019080805160405193929190846401000000008211156200006957600080fd5b838201915060208201858111156200008057600080fd5b82518660208202830111640100000000821117156200009e57600080fd5b8083526020830192505050908051906020019060200280838360005b83811015620000d7578082015181840152602081019050620000ba565b50505050905001604052602001805190602001909291908051906020019092919080519060200190929190505050600062000117620003da60201b60201c565b9050806000806101000a81548173ffffffffffffffffffffffffffffffffffffffff021916908373ffffffffffffffffffffffffffffffffffffffff1602179055508073ffffffffffffffffffffffffffffffffffffffff16600073ffffffffffffffffffffffffffffffffffffffff167f8be0079c531659141344cd1fd0a4f28419497f9722a3daafe3b4186f6b6457e060405160405180910390a35083600081518110620001c357fe5b6020026020010151600260006101000a81548173ffffffffffffffffffffffffffffffffffffffff021916908373ffffffffffffffffffffffffffffffffffffffff16021790555081600660006101000a81548173ffffffffffffffffffffffffffffffffffffffff021916908373ffffffffffffffffffffffffffffffffffffffff16021790555082600360006101000a81548173ffffffffffffffffffffffffffffffffffffffff021916908373ffffffffffffffffffffffffffffffffffffffff16021790555080600a8190555060076040518060c00160405280600260009054906101000a900473ffffffffffffffffffffffffffffffffffffffff1673ffffffffffffffffffffffffffffffffffffffff168152602001600a8152602001600081526020018681526020016000815260200160011515815250908060018154018082558091505060019003906000526020600020906006020160009091909190915060008201518160000160006101000a81548173ffffffffffffffffffffffffffffffffffffffff021916908373ffffffffffffffffffffffffffffffffffffffff16021790555060208201518160010155604082015181600201556060820151816003019080519060200190620003a3929190620003e2565b506080820151816004015560a08201518160050160006101000a81548160ff021916908315150217905550505050505050620004ae565b600033905090565b8280548282559060005260206000209081019282156200045e579160200282015b828111156200045d5782518260006101000a81548173ffffffffffffffffffffffffffffffffffffffff021916908373ffffffffffffffffffffffffffffffffffffffff1602179055509160200191906001019062000403565b5b5090506200046d919062000471565b5090565b5b80821115620004aa57600081816101000a81549073ffffffffffffffffffffffffffffffffffffffff02191690555060010162000472565b5090565b61474180620004be6000396000f3fe608060405234801561001057600080fd5b50600436106101c45760003560e01c806364482f79116100f95780639381ff5811610097578063b170050311610071578063b1700503146107bc578063d49e77cd146107da578063e2bbb1581461080e578063f2fde38b14610846576101c4565b80639381ff58146106c357806393f1a40b14610725578063a694fc3a1461078e576101c4565b80638d88a90e116100d35780638d88a90e146105cb5780638da5cb5b1461060f5780638dbb1e3a14610643578063928012301461068f576101c4565b806364482f7914610549578063715018a61461058d5780637cd07e4714610597576101c4565b8063441a3e701161016657806351eb05a61161014057806351eb05a6146103e95780635312ea8e146104175780635de98a0114610445578063630b5ba11461053f576101c4565b8063441a3e7014610365578063454b06081461039d57806348cd4cb1146103cb576101c4565b806317caf6f1116101a257806317caf6f1146102a15780631fc8bc5d146102bf57806323cf3118146102f35780632e17de7814610337576101c4565b806304a89e57146101c9578063081e3eda1461020d5780631526fe271461022b575b600080fd5b61020b600480360360208110156101df57600080fd5b81019080803573ffffffffffffffffffffffffffffffffffffffff16906020019092919050505061088a565b005b610215610996565b6040518082815260200191505060405180910390f35b6102576004803603602081101561024157600080fd5b81019080803590602001909291905050506109a3565b604051808673ffffffffffffffffffffffffffffffffffffffff16815260200185815260200184815260200183815260200182151581526020019550505050505060405180910390f35b6102a9610a13565b6040518082815260200191505060405180910390f35b6102c7610a19565b604051808273ffffffffffffffffffffffffffffffffffffffff16815260200191505060405180910390f35b6103356004803603602081101561030957600080fd5b81019080803573ffffffffffffffffffffffffffffffffffffffff169060200190929190505050610a43565b005b6103636004803603602081101561034d57600080fd5b8101908080359060200190929190505050610b4f565b005b61039b6004803603604081101561037b57600080fd5b810190808035906020019092919080359060200190929190505050610dc0565b005b6103c9600480360360208110156103b357600080fd5b810190808035906020019092919050505061155f565b005b6103d3611989565b6040518082815260200191505060405180910390f35b610415600480360360208110156103ff57600080fd5b810190808035906020019092919050505061198f565b005b6104436004803603602081101561042d57600080fd5b8101908080359060200190929190505050611bfb565b005b61053d600480360360a081101561045b57600080fd5b8101908080359060200190929190803573ffffffffffffffffffffffffffffffffffffffff169060200190929190803590602001906401000000008111156104a257600080fd5b8201836020820111156104b457600080fd5b803590602001918460208302840111640100000000831117156104d657600080fd5b919080806020026020016040519081016040528093929190818152602001838360200280828437600081840152601f19601f820116905080830192505050505050509192919290803515159060200190929190803515159060200190929190505050611d2d565b005b61054761215b565b005b61058b6004803603606081101561055f57600080fd5b810190808035906020019092919080359060200190929190803515159060200190929190505050612188565b005b6105956122d2565b005b61059f612458565b604051808273ffffffffffffffffffffffffffffffffffffffff16815260200191505060405180910390f35b61060d600480360360208110156105e157600080fd5b81019080803573ffffffffffffffffffffffffffffffffffffffff16906020019092919050505061247e565b005b610617612585565b604051808273ffffffffffffffffffffffffffffffffffffffff16815260200191505060405180910390f35b6106796004803603604081101561065957600080fd5b8101908080359060200190929190803590602001909291905050506125ae565b6040518082815260200191505060405180910390f35b6106976125cb565b604051808273ffffffffffffffffffffffffffffffffffffffff16815260200191505060405180910390f35b61070f600480360360408110156106d957600080fd5b8101908080359060200190929190803573ffffffffffffffffffffffffffffffffffffffff1690602001909291905050506125f1565b6040518082815260200191505060405180910390f35b6107716004803603604081101561073b57600080fd5b8101908080359060200190929190803573ffffffffffffffffffffffffffffffffffffffff169060200190929190505050612837565b604051808381526020018281526020019250505060405180910390f35b6107ba600480360360208110156107a457600080fd5b8101908080359060200190929190505050612868565b005b6107c4612b50565b6040518082815260200191505060405180910390f35b6107e2612b56565b604051808273ffffffffffffffffffffffffffffffffffffffff16815260200191505060405180910390f35b6108446004803603604081101561082457600080fd5b810190808035906020019092919080359060200190929190505050612b7c565b005b6108886004803603602081101561085c57600080fd5b81019080803573ffffffffffffffffffffffffffffffffffffffff169060200190929190505050613820565b005b6108926138f4565b73ffffffffffffffffffffffffffffffffffffffff1660008054906101000a900473ffffffffffffffffffffffffffffffffffffffff1673ffffffffffffffffffffffffffffffffffffffff1614610952576040517f08c379a00000000000000000000000000000000000000000000000000000000081526004018080602001828103825260208152602001807f4f776e61626c653a2063616c6c6572206973206e6f7420746865206f776e657281525060200191505060405180910390fd5b80600160006101000a81548173ffffffffffffffffffffffffffffffffffffffff021916908373ffffffffffffffffffffffffffffffffffffffff16021790555050565b6000600780549050905090565b600781815481106109b057fe5b90600052602060002090600602016000915090508060000160009054906101000a900473ffffffffffffffffffffffffffffffffffffffff16908060010154908060020154908060040154908060050160009054906101000a900460ff16905085565b60095481565b6000600160009054906101000a900473ffffffffffffffffffffffffffffffffffffffff16905090565b610a4b6138f4565b73ffffffffffffffffffffffffffffffffffffffff1660008054906101000a900473ffffffffffffffffffffffffffffffffffffffff1673ffffffffffffffffffffffffffffffffffffffff1614610b0b576040517f08c379a00000000000000000000000000000000000000000000000000000000081526004018080602001828103825260208152602001807f4f776e61626c653a2063616c6c6572206973206e6f7420746865206f776e657281525060200191505060405180910390fd5b80600560006101000a81548173ffffffffffffffffffffffffffffffffffffffff021916908373ffffffffffffffffffffffffffffffffffffffff16021790555050565b60006007600081548110610b5f57fe5b9060005260206000209060060201905060006008600080815260200190815260200160002060003373ffffffffffffffffffffffffffffffffffffffff1673ffffffffffffffffffffffffffffffffffffffff16815260200190815260200160002090508281600001541015610c3d576040517f08c379a00000000000000000000000000000000000000000000000000000000081526004018080602001828103825260128152602001807f77697468647261773a206e6f7420676f6f64000000000000000000000000000081525060200191505060405180910390fd5b610c47600061198f565b6000610c918260010154610c8364e8d4a51000610c75876004015487600001546138fc90919063ffffffff16565b61398290919063ffffffff16565b6139cc90919063ffffffff16565b90506000610cbc6064610cae6002856138fc90919063ffffffff16565b61398290919063ffffffff16565b9050610cd58584600001546139cc90919063ffffffff16565b8360000181905550610cf933610cf483856139cc90919063ffffffff16565b613a16565b610d25600360009054906101000a900473ffffffffffffffffffffffffffffffffffffffff1682613a16565b610d5764e8d4a51000610d49866004015486600001546138fc90919063ffffffff16565b61398290919063ffffffff16565b8360010181905550610d693386613a16565b60003373ffffffffffffffffffffffffffffffffffffffff167ff279e6a1f5e320cca91135676d9cb6e44ca8a08c0b88342bcdb1144f6511b568876040518082815260200191505060405180910390a35050505050565b60008211610e36576040517f08c379a00000000000000000000000000000000000000000000000000000000081526004018080602001828103825260158152602001807f706f6f6c203020697320666f72207374616b696e67000000000000000000000081525060200191505060405180910390fd5b600060078381548110610e4557fe5b9060005260206000209060060201905060006008600085815260200190815260200160002060003373ffffffffffffffffffffffffffffffffffffffff1673ffffffffffffffffffffffffffffffffffffffff1681526020019081526020016000209050600082600301600081548110610ebb57fe5b9060005260206000200160009054906101000a900473ffffffffffffffffffffffffffffffffffffffff169050600083600301600181548110610efa57fe5b9060005260206000200160009054906101000a900473ffffffffffffffffffffffffffffffffffffffff1690508483600001541015610fa1576040517f08c379a00000000000000000000000000000000000000000000000000000000081526004018080602001828103825260128152602001807f77697468647261773a206e6f7420676f6f64000000000000000000000000000081525060200191505060405180910390fd5b610faa8661198f565b6000610ff48460010154610fe664e8d4a51000610fd8896004015489600001546138fc90919063ffffffff16565b61398290919063ffffffff16565b6139cc90919063ffffffff16565b9050600061101f60646110116002856138fc90919063ffffffff16565b61398290919063ffffffff16565b905060008473ffffffffffffffffffffffffffffffffffffffff166370a08231306040518263ffffffff1660e01b8152600401808273ffffffffffffffffffffffffffffffffffffffff16815260200191505060206040518083038186803b15801561108a57600080fd5b505afa15801561109e573d6000803e3d6000fd5b505050506040513d60208110156110b457600080fd5b8101908080519060200190929190505050905060008473ffffffffffffffffffffffffffffffffffffffff166370a08231306040518263ffffffff1660e01b8152600401808273ffffffffffffffffffffffffffffffffffffffff16815260200191505060206040518083038186803b15801561113057600080fd5b505afa158015611144573d6000803e3d6000fd5b505050506040513d602081101561115a57600080fd5b81019080805190602001909291905050509050600660009054906101000a900473ffffffffffffffffffffffffffffffffffffffff1673ffffffffffffffffffffffffffffffffffffffff1663baa2abde87878c60008030426040518863ffffffff1660e01b8152600401808873ffffffffffffffffffffffffffffffffffffffff1681526020018773ffffffffffffffffffffffffffffffffffffffff1681526020018681526020018581526020018481526020018373ffffffffffffffffffffffffffffffffffffffff1681526020018281526020019750505050505050506040805180830381600087803b15801561125457600080fd5b505af1158015611268573d6000803e3d6000fd5b505050506040513d604081101561127e57600080fd5b81019080805190602001909291908051906020019092919050505050506000611351838873ffffffffffffffffffffffffffffffffffffffff166370a08231306040518263ffffffff1660e01b8152600401808273ffffffffffffffffffffffffffffffffffffffff16815260200191505060206040518083038186803b15801561130857600080fd5b505afa15801561131c573d6000803e3d6000fd5b505050506040513d602081101561133257600080fd5b81019080805190602001909291905050506139cc90919063ffffffff16565b90506000611409838873ffffffffffffffffffffffffffffffffffffffff166370a08231306040518263ffffffff1660e01b8152600401808273ffffffffffffffffffffffffffffffffffffffff16815260200191505060206040518083038186803b1580156113c057600080fd5b505afa1580156113d4573d6000803e3d6000fd5b505050506040513d60208110156113ea57600080fd5b81019080805190602001909291905050506139cc90919063ffffffff16565b90506114228b8a600001546139cc90919063ffffffff16565b89600001819055506114463361144187896139cc90919063ffffffff16565b613a16565b611472600360009054906101000a900473ffffffffffffffffffffffffffffffffffffffff1686613a16565b6114a464e8d4a510006114968c600401548c600001546138fc90919063ffffffff16565b61398290919063ffffffff16565b89600101819055506114d733838a73ffffffffffffffffffffffffffffffffffffffff16613c8f9092919063ffffffff16565b61150233828973ffffffffffffffffffffffffffffffffffffffff16613c8f9092919063ffffffff16565b8b3373ffffffffffffffffffffffffffffffffffffffff167ff279e6a1f5e320cca91135676d9cb6e44ca8a08c0b88342bcdb1144f6511b5688d6040518082815260200191505060405180910390a3505050505050505050505050565b600073ffffffffffffffffffffffffffffffffffffffff16600560009054906101000a900473ffffffffffffffffffffffffffffffffffffffff1673ffffffffffffffffffffffffffffffffffffffff161415611624576040517f08c379a00000000000000000000000000000000000000000000000000000000081526004018080602001828103825260148152602001807f6d6967726174653a206e6f206d69677261746f7200000000000000000000000081525060200191505060405180910390fd5b60006007828154811061163357fe5b9060005260206000209060060201905060008160000160009054906101000a900473ffffffffffffffffffffffffffffffffffffffff16905060008173ffffffffffffffffffffffffffffffffffffffff166370a08231306040518263ffffffff1660e01b8152600401808273ffffffffffffffffffffffffffffffffffffffff16815260200191505060206040518083038186803b1580156116d557600080fd5b505afa1580156116e9573d6000803e3d6000fd5b505050506040513d60208110156116ff57600080fd5b8101908080519060200190929190505050905061175f600560009054906101000a900473ffffffffffffffffffffffffffffffffffffffff16828473ffffffffffffffffffffffffffffffffffffffff16613d319092919063ffffffff16565b6000600560009054906101000a900473ffffffffffffffffffffffffffffffffffffffff1673ffffffffffffffffffffffffffffffffffffffff1663ce5494bb846040518263ffffffff1660e01b8152600401808273ffffffffffffffffffffffffffffffffffffffff168152602001915050602060405180830381600087803b1580156117ec57600080fd5b505af1158015611800573d6000803e3d6000fd5b505050506040513d602081101561181657600080fd5b810190808051906020019092919050505090508073ffffffffffffffffffffffffffffffffffffffff166370a08231306040518263ffffffff1660e01b8152600401808273ffffffffffffffffffffffffffffffffffffffff16815260200191505060206040518083038186803b15801561189057600080fd5b505afa1580156118a4573d6000803e3d6000fd5b505050506040513d60208110156118ba57600080fd5b8101908080519060200190929190505050821461193f576040517f08c379a000000000000000000000000000000000000000000000000000000000815260040180806020018281038252600c8152602001807f6d6967726174653a20626164000000000000000000000000000000000000000081525060200191505060405180910390fd5b808460000160006101000a81548173ffffffffffffffffffffffffffffffffffffffff021916908373ffffffffffffffffffffffffffffffffffffffff1602179055505050505050565b600a5481565b60006007828154811061199e57fe5b90600052602060002090600602019050806002015443116119bf5750611bf8565b60008160000160009054906101000a900473ffffffffffffffffffffffffffffffffffffffff1673ffffffffffffffffffffffffffffffffffffffff166370a08231306040518263ffffffff1660e01b8152600401808273ffffffffffffffffffffffffffffffffffffffff16815260200191505060206040518083038186803b158015611a4c57600080fd5b505afa158015611a60573d6000803e3d6000fd5b505050506040513d6020811015611a7657600080fd5b810190808051906020019092919050505090506000811415611aa2574382600201819055505050611bf8565b6000611ab28360020154436125ae565b90506000611af5600954611ae78660010154611ad9600454876138fc90919063ffffffff16565b6138fc90919063ffffffff16565b61398290919063ffffffff16565b9050600260009054906101000a900473ffffffffffffffffffffffffffffffffffffffff1673ffffffffffffffffffffffffffffffffffffffff166340c10f1930836040518363ffffffff1660e01b8152600401808373ffffffffffffffffffffffffffffffffffffffff16815260200182815260200192505050600060405180830381600087803b158015611b8a57600080fd5b505af1158015611b9e573d6000803e3d6000fd5b50505050611be2611bcf84611bc164e8d4a51000856138fc90919063ffffffff16565b61398290919063ffffffff16565b8560040154613ef690919063ffffffff16565b8460040181905550438460020181905550505050505b50565b600060078281548110611c0a57fe5b9060005260206000209060060201905060006008600084815260200190815260200160002060003373ffffffffffffffffffffffffffffffffffffffff1673ffffffffffffffffffffffffffffffffffffffff1681526020019081526020016000209050611cc13382600001548460000160009054906101000a900473ffffffffffffffffffffffffffffffffffffffff1673ffffffffffffffffffffffffffffffffffffffff16613c8f9092919063ffffffff16565b823373ffffffffffffffffffffffffffffffffffffffff167fbb757047c2b5f3974fe26b7c10f732e7bce710b0952a71082702781e62ae059583600001546040518082815260200191505060405180910390a36000816000018190555060008160010181905550505050565b611d356138f4565b73ffffffffffffffffffffffffffffffffffffffff1660008054906101000a900473ffffffffffffffffffffffffffffffffffffffff1673ffffffffffffffffffffffffffffffffffffffff1614611df5576040517f08c379a00000000000000000000000000000000000000000000000000000000081526004018080602001828103825260208152602001807f4f776e61626c653a2063616c6c6572206973206e6f7420746865206f776e657281525060200191505060405180910390fd5b8115611e0457611e0361215b565b5b6000600a544311611e1757600a54611e19565b435b9050611e3086600954613ef690919063ffffffff16565b600981905550600084600081518110611e4557fe5b60200260200101519050600085600181518110611e5e57fe5b602002602001015190508173ffffffffffffffffffffffffffffffffffffffff1663095ea7b3600660009054906101000a900473ffffffffffffffffffffffffffffffffffffffff167a184f03e93ff9f4daa797ed6e38ed64bf6a1f0100000000000000006040518363ffffffff1660e01b8152600401808373ffffffffffffffffffffffffffffffffffffffff16815260200182815260200192505050602060405180830381600087803b158015611f1657600080fd5b505af1158015611f2a573d6000803e3d6000fd5b505050506040513d6020811015611f4057600080fd5b8101908080519060200190929190505050508073ffffffffffffffffffffffffffffffffffffffff1663095ea7b3600660009054906101000a900473ffffffffffffffffffffffffffffffffffffffff167a184f03e93ff9f4daa797ed6e38ed64bf6a1f0100000000000000006040518363ffffffff1660e01b8152600401808373ffffffffffffffffffffffffffffffffffffffff16815260200182815260200192505050602060405180830381600087803b15801561200057600080fd5b505af1158015612014573d6000803e3d6000fd5b505050506040513d602081101561202a57600080fd5b81019080805190602001909291905050505060076040518060c001604052808973ffffffffffffffffffffffffffffffffffffffff1681526020018a815260200185815260200188815260200160008152602001861515815250908060018154018082558091505060019003906000526020600020906006020160009091909190915060008201518160000160006101000a81548173ffffffffffffffffffffffffffffffffffffffff021916908373ffffffffffffffffffffffffffffffffffffffff1602179055506020820151816001015560408201518160020155606082015181600301908051906020019061212492919061459f565b506080820151816004015560a08201518160050160006101000a81548160ff02191690831515021790555050505050505050505050565b6000600780549050905060005b81811015612184576121798161198f565b806001019050612168565b5050565b6121906138f4565b73ffffffffffffffffffffffffffffffffffffffff1660008054906101000a900473ffffffffffffffffffffffffffffffffffffffff1673ffffffffffffffffffffffffffffffffffffffff1614612250576040517f08c379a00000000000000000000000000000000000000000000000000000000081526004018080602001828103825260208152602001807f4f776e61626c653a2063616c6c6572206973206e6f7420746865206f776e657281525060200191505060405180910390fd5b801561225f5761225e61215b565b5b6122a4826122966007868154811061227357fe5b9060005260206000209060060201600101546009546139cc90919063ffffffff16565b613ef690919063ffffffff16565b60098190555081600784815481106122b857fe5b906000526020600020906006020160010181905550505050565b6122da6138f4565b73ffffffffffffffffffffffffffffffffffffffff1660008054906101000a900473ffffffffffffffffffffffffffffffffffffffff1673ffffffffffffffffffffffffffffffffffffffff161461239a576040517f08c379a00000000000000000000000000000000000000000000000000000000081526004018080602001828103825260208152602001807f4f776e61626c653a2063616c6c6572206973206e6f7420746865206f776e657281525060200191505060405180910390fd5b600073ffffffffffffffffffffffffffffffffffffffff1660008054906101000a900473ffffffffffffffffffffffffffffffffffffffff1673ffffffffffffffffffffffffffffffffffffffff167f8be0079c531659141344cd1fd0a4f28419497f9722a3daafe3b4186f6b6457e060405160405180910390a360008060006101000a81548173ffffffffffffffffffffffffffffffffffffffff021916908373ffffffffffffffffffffffffffffffffffffffff160217905550565b600560009054906101000a900473ffffffffffffffffffffffffffffffffffffffff1681565b600360009054906101000a900473ffffffffffffffffffffffffffffffffffffffff1673ffffffffffffffffffffffffffffffffffffffff163373ffffffffffffffffffffffffffffffffffffffff1614612541576040517f08c379a00000000000000000000000000000000000000000000000000000000081526004018080602001828103825260098152602001807f6465763a207775743f000000000000000000000000000000000000000000000081525060200191505060405180910390fd5b80600360006101000a81548173ffffffffffffffffffffffffffffffffffffffff021916908373ffffffffffffffffffffffffffffffffffffffff16021790555050565b60008060009054906101000a900473ffffffffffffffffffffffffffffffffffffffff16905090565b60006125c383836139cc90919063ffffffff16565b905092915050565b600260009054906101000a900473ffffffffffffffffffffffffffffffffffffffff1681565b6000806007848154811061260157fe5b9060005260206000209060060201905060006008600086815260200190815260200160002060008573ffffffffffffffffffffffffffffffffffffffff1673ffffffffffffffffffffffffffffffffffffffff168152602001908152602001600020905060008260040154905060008360000160009054906101000a900473ffffffffffffffffffffffffffffffffffffffff1673ffffffffffffffffffffffffffffffffffffffff166370a08231306040518263ffffffff1660e01b8152600401808273ffffffffffffffffffffffffffffffffffffffff16815260200191505060206040518083038186803b1580156126fb57600080fd5b505afa15801561270f573d6000803e3d6000fd5b505050506040513d602081101561272557600080fd5b8101908080519060200190929190505050905083600201544311801561274c575060008114155b156127e75760006127618560020154436125ae565b905060006127a46009546127968860010154612788600454876138fc90919063ffffffff16565b6138fc90919063ffffffff16565b61398290919063ffffffff16565b90506127e26127d3846127c564e8d4a51000856138fc90919063ffffffff16565b61398290919063ffffffff16565b85613ef690919063ffffffff16565b935050505b61282b836001015461281d64e8d4a5100061280f8688600001546138fc90919063ffffffff16565b61398290919063ffffffff16565b6139cc90919063ffffffff16565b94505050505092915050565b6008602052816000526040600020602052806000526040600020600091509150508060000154908060010154905082565b600260009054906101000a900473ffffffffffffffffffffffffffffffffffffffff1673ffffffffffffffffffffffffffffffffffffffff166323b872dd3330846040518463ffffffff1660e01b8152600401808473ffffffffffffffffffffffffffffffffffffffff1681526020018373ffffffffffffffffffffffffffffffffffffffff1681526020018281526020019350505050602060405180830381600087803b15801561291957600080fd5b505af115801561292d573d6000803e3d6000fd5b505050506040513d602081101561294357600080fd5b8101908080519060200190929190505050506000600760008154811061296557fe5b9060005260206000209060060201905060006008600080815260200190815260200160002060003373ffffffffffffffffffffffffffffffffffffffff1673ffffffffffffffffffffffffffffffffffffffff16815260200190815260200160002090506129d3600061198f565b600081600001541115612aa2576000612a2a8260010154612a1c64e8d4a51000612a0e876004015487600001546138fc90919063ffffffff16565b61398290919063ffffffff16565b6139cc90919063ffffffff16565b90506000612a556064612a476002856138fc90919063ffffffff16565b61398290919063ffffffff16565b9050612a7333612a6e83856139cc90919063ffffffff16565b613a16565b612a9f600360009054906101000a900473ffffffffffffffffffffffffffffffffffffffff1682613a16565b50505b612ab9838260000154613ef690919063ffffffff16565b8160000181905550612af364e8d4a51000612ae5846004015484600001546138fc90919063ffffffff16565b61398290919063ffffffff16565b816001018190555060003373ffffffffffffffffffffffffffffffffffffffff167f90890809c654f11d6e72a28fa60149770a0d11ec6c92319d6ceb2bb0a4ea1a15856040518082815260200191505060405180910390a3505050565b60045481565b600360009054906101000a900473ffffffffffffffffffffffffffffffffffffffff1681565b60008211612bf2576040517f08c379a00000000000000000000000000000000000000000000000000000000081526004018080602001828103825260158152602001807f706f6f6c203020697320666f72207374616b696e67000000000000000000000081525060200191505060405180910390fd5b600060078381548110612c0157fe5b9060005260206000209060060201905060006008600085815260200190815260200160002060003373ffffffffffffffffffffffffffffffffffffffff1673ffffffffffffffffffffffffffffffffffffffff1681526020019081526020016000209050612c6e8461198f565b600081600001541115612d3d576000612cc58260010154612cb764e8d4a51000612ca9876004015487600001546138fc90919063ffffffff16565b61398290919063ffffffff16565b6139cc90919063ffffffff16565b90506000612cf06064612ce26002856138fc90919063ffffffff16565b61398290919063ffffffff16565b9050612d0e33612d0983856139cc90919063ffffffff16565b613a16565b612d3a600360009054906101000a900473ffffffffffffffffffffffffffffffffffffffff1682613a16565b50505b600082600301600081548110612d4f57fe5b9060005260206000200160009054906101000a900473ffffffffffffffffffffffffffffffffffffffff169050600083600301600181548110612d8e57fe5b9060005260206000200160009054906101000a900473ffffffffffffffffffffffffffffffffffffffff16905060008460000160009054906101000a900473ffffffffffffffffffffffffffffffffffffffff1673ffffffffffffffffffffffffffffffffffffffff166370a08231306040518263ffffffff1660e01b8152600401808273ffffffffffffffffffffffffffffffffffffffff16815260200191505060206040518083038186803b158015612e4857600080fd5b505afa158015612e5c573d6000803e3d6000fd5b505050506040513d6020811015612e7257600080fd5b810190808051906020019092919050505090508273ffffffffffffffffffffffffffffffffffffffff166323b872dd3330896040518463ffffffff1660e01b8152600401808473ffffffffffffffffffffffffffffffffffffffff1681526020018373ffffffffffffffffffffffffffffffffffffffff1681526020018281526020019350505050602060405180830381600087803b158015612f1457600080fd5b505af1158015612f28573d6000803e3d6000fd5b505050506040513d6020811015612f3e57600080fd5b81019080805190602001909291905050505060008373ffffffffffffffffffffffffffffffffffffffff166370a08231306040518263ffffffff1660e01b8152600401808273ffffffffffffffffffffffffffffffffffffffff16815260200191505060206040518083038186803b158015612fb957600080fd5b505afa158015612fcd573d6000803e3d6000fd5b505050506040513d6020811015612fe357600080fd5b8101908080519060200190929190505050905060008373ffffffffffffffffffffffffffffffffffffffff166370a08231306040518263ffffffff1660e01b8152600401808273ffffffffffffffffffffffffffffffffffffffff16815260200191505060206040518083038186803b15801561305f57600080fd5b505afa158015613073573d6000803e3d6000fd5b505050506040513d602081101561308957600080fd5b81019080805190602001909291905050509050600660009054906101000a900473ffffffffffffffffffffffffffffffffffffffff1673ffffffffffffffffffffffffffffffffffffffff166338ed17396130ee60028b61398290919063ffffffff16565b60008a60030130426040518663ffffffff1660e01b815260040180868152602001858152602001806020018473ffffffffffffffffffffffffffffffffffffffff16815260200183815260200182810382528581815481526020019150805480156131ae57602002820191906000526020600020905b8160009054906101000a900473ffffffffffffffffffffffffffffffffffffffff1673ffffffffffffffffffffffffffffffffffffffff1681526020019060010190808311613164575b50509650505050505050600060405180830381600087803b1580156131d257600080fd5b505af11580156131e6573d6000803e3d6000fd5b505050506040513d6000823e3d601f19601f82011682018060405250602081101561321057600080fd5b810190808051604051939291908464010000000082111561323057600080fd5b8382019150602082018581111561324657600080fd5b825186602082028301116401000000008211171561326357600080fd5b8083526020830192505050908051906020019060200280838360005b8381101561329a57808201518184015260208101905061327f565b5050505090500160405250505050600061335e8673ffffffffffffffffffffffffffffffffffffffff166370a08231306040518263ffffffff1660e01b8152600401808273ffffffffffffffffffffffffffffffffffffffff16815260200191505060206040518083038186803b15801561331457600080fd5b505afa158015613328573d6000803e3d6000fd5b505050506040513d602081101561333e57600080fd5b8101908080519060200190929190505050846139cc90919063ffffffff16565b90506000613416838773ffffffffffffffffffffffffffffffffffffffff166370a08231306040518263ffffffff1660e01b8152600401808273ffffffffffffffffffffffffffffffffffffffff16815260200191505060206040518083038186803b1580156133cd57600080fd5b505afa1580156133e1573d6000803e3d6000fd5b505050506040513d60208110156133f757600080fd5b81019080805190602001909291905050506139cc90919063ffffffff16565b9050600660009054906101000a900473ffffffffffffffffffffffffffffffffffffffff1673ffffffffffffffffffffffffffffffffffffffff1663e8e337008888858560008030426040518963ffffffff1660e01b8152600401808973ffffffffffffffffffffffffffffffffffffffff1681526020018873ffffffffffffffffffffffffffffffffffffffff1681526020018781526020018681526020018581526020018481526020018373ffffffffffffffffffffffffffffffffffffffff16815260200182815260200198505050505050505050606060405180830381600087803b15801561350857600080fd5b505af115801561351c573d6000803e3d6000fd5b505050506040513d606081101561353257600080fd5b810190808051906020019092919080519060200190929190805190602001909291905050505050506000613634868b60000160009054906101000a900473ffffffffffffffffffffffffffffffffffffffff1673ffffffffffffffffffffffffffffffffffffffff166370a08231306040518263ffffffff1660e01b8152600401808273ffffffffffffffffffffffffffffffffffffffff16815260200191505060206040518083038186803b1580156135eb57600080fd5b505afa1580156135ff573d6000803e3d6000fd5b505050506040513d602081101561361557600080fd5b81019080805190602001909291905050506139cc90919063ffffffff16565b9050600061365f60646136516002856138fc90919063ffffffff16565b61398290919063ffffffff16565b905061367481836139cc90919063ffffffff16565b91508a60000160009054906101000a900473ffffffffffffffffffffffffffffffffffffffff1673ffffffffffffffffffffffffffffffffffffffff1663a9059cbb600360009054906101000a900473ffffffffffffffffffffffffffffffffffffffff16836040518363ffffffff1660e01b8152600401808373ffffffffffffffffffffffffffffffffffffffff16815260200182815260200192505050602060405180830381600087803b15801561372d57600080fd5b505af1158015613741573d6000803e3d6000fd5b505050506040513d602081101561375757600080fd5b810190808051906020019092919050505050613780828b60000154613ef690919063ffffffff16565b8a600001819055506137ba64e8d4a510006137ac8d600401548d600001546138fc90919063ffffffff16565b61398290919063ffffffff16565b8a600101819055508c3373ffffffffffffffffffffffffffffffffffffffff167f90890809c654f11d6e72a28fa60149770a0d11ec6c92319d6ceb2bb0a4ea1a158e6040518082815260200191505060405180910390a350505050505050505050505050565b6138286138f4565b73ffffffffffffffffffffffffffffffffffffffff1660008054906101000a900473ffffffffffffffffffffffffffffffffffffffff1673ffffffffffffffffffffffffffffffffffffffff16146138e8576040517f08c379a00000000000000000000000000000000000000000000000000000000081526004018080602001828103825260208152602001807f4f776e61626c653a2063616c6c6572206973206e6f7420746865206f776e657281525060200191505060405180910390fd5b6138f181613f7e565b50565b600033905090565b60008083141561390f576000905061397c565b600082840290508284828161392057fe5b0414613977576040517f08c379a00000000000000000000000000000000000000000000000000000000081526004018080602001828103825260218152602001806146b56021913960400191505060405180910390fd5b809150505b92915050565b60006139c483836040518060400160405280601a81526020017f536166654d6174683a206469766973696f6e206279207a65726f0000000000008152506140c1565b905092915050565b6000613a0e83836040518060400160405280601e81526020017f536166654d6174683a207375627472616374696f6e206f766572666c6f770000815250614187565b905092915050565b6000600260009054906101000a900473ffffffffffffffffffffffffffffffffffffffff1673ffffffffffffffffffffffffffffffffffffffff166370a08231306040518263ffffffff1660e01b8152600401808273ffffffffffffffffffffffffffffffffffffffff16815260200191505060206040518083038186803b158015613aa157600080fd5b505afa158015613ab5573d6000803e3d6000fd5b505050506040513d6020811015613acb57600080fd5b8101908080519060200190929190505050905080821115613bba57600260009054906101000a900473ffffffffffffffffffffffffffffffffffffffff1673ffffffffffffffffffffffffffffffffffffffff1663a9059cbb84836040518363ffffffff1660e01b8152600401808373ffffffffffffffffffffffffffffffffffffffff16815260200182815260200192505050602060405180830381600087803b158015613b7957600080fd5b505af1158015613b8d573d6000803e3d6000fd5b505050506040513d6020811015613ba357600080fd5b810190808051906020019092919050505050613c8a565b600260009054906101000a900473ffffffffffffffffffffffffffffffffffffffff1673ffffffffffffffffffffffffffffffffffffffff1663a9059cbb84846040518363ffffffff1660e01b8152600401808373ffffffffffffffffffffffffffffffffffffffff16815260200182815260200192505050602060405180830381600087803b158015613c4d57600080fd5b505af1158015613c61573d6000803e3d6000fd5b505050506040513d6020811015613c7757600080fd5b8101908080519060200190929190505050505b505050565b613d2c8363a9059cbb60e01b8484604051602401808373ffffffffffffffffffffffffffffffffffffffff16815260200182815260200192505050604051602081830303815290604052907bffffffffffffffffffffffffffffffffffffffffffffffffffffffff19166020820180517bffffffffffffffffffffffffffffffffffffffffffffffffffffffff8381831617835250505050614247565b505050565b6000811480613dff575060008373ffffffffffffffffffffffffffffffffffffffff1663dd62ed3e30856040518363ffffffff1660e01b8152600401808373ffffffffffffffffffffffffffffffffffffffff1681526020018273ffffffffffffffffffffffffffffffffffffffff1681526020019250505060206040518083038186803b158015613dc257600080fd5b505afa158015613dd6573d6000803e3d6000fd5b505050506040513d6020811015613dec57600080fd5b8101908080519060200190929190505050145b613e54576040517f08c379a00000000000000000000000000000000000000000000000000000000081526004018080602001828103825260368152602001806146d66036913960400191505060405180910390fd5b613ef18363095ea7b360e01b8484604051602401808373ffffffffffffffffffffffffffffffffffffffff16815260200182815260200192505050604051602081830303815290604052907bffffffffffffffffffffffffffffffffffffffffffffffffffffffff19166020820180517bffffffffffffffffffffffffffffffffffffffffffffffffffffffff8381831617835250505050614247565b505050565b600080828401905083811015613f74576040517f08c379a000000000000000000000000000000000000000000000000000000000815260040180806020018281038252601b8152602001807f536166654d6174683a206164646974696f6e206f766572666c6f77000000000081525060200191505060405180910390fd5b8091505092915050565b600073ffffffffffffffffffffffffffffffffffffffff168173ffffffffffffffffffffffffffffffffffffffff161415614004576040517f08c379a000000000000000000000000000000000000000000000000000000000815260040180806020018281038252602681526020018061468f6026913960400191505060405180910390fd5b8073ffffffffffffffffffffffffffffffffffffffff1660008054906101000a900473ffffffffffffffffffffffffffffffffffffffff1673ffffffffffffffffffffffffffffffffffffffff167f8be0079c531659141344cd1fd0a4f28419497f9722a3daafe3b4186f6b6457e060405160405180910390a3806000806101000a81548173ffffffffffffffffffffffffffffffffffffffff021916908373ffffffffffffffffffffffffffffffffffffffff16021790555050565b6000808311829061416d576040517f08c379a00000000000000000000000000000000000000000000000000000000081526004018080602001828103825283818151815260200191508051906020019080838360005b83811015614132578082015181840152602081019050614117565b50505050905090810190601f16801561415f5780820380516001836020036101000a031916815260200191505b509250505060405180910390fd5b50600083858161417957fe5b049050809150509392505050565b6000838311158290614234576040517f08c379a00000000000000000000000000000000000000000000000000000000081526004018080602001828103825283818151815260200191508051906020019080838360005b838110156141f95780820151818401526020810190506141de565b50505050905090810190601f1680156142265780820380516001836020036101000a031916815260200191505b509250505060405180910390fd5b5060008385039050809150509392505050565b60606142a9826040518060400160405280602081526020017f5361666542455032303a206c6f772d6c6576656c2063616c6c206661696c65648152508573ffffffffffffffffffffffffffffffffffffffff166143369092919063ffffffff16565b9050600081511115614331578080602001905160208110156142ca57600080fd5b8101908080519060200190929190505050614330576040517f08c379a000000000000000000000000000000000000000000000000000000000815260040180806020018281038252602a815260200180614665602a913960400191505060405180910390fd5b5b505050565b6060614345848460008561434e565b90509392505050565b606061435985614554565b6143cb576040517f08c379a000000000000000000000000000000000000000000000000000000000815260040180806020018281038252601d8152602001807f416464726573733a2063616c6c20746f206e6f6e2d636f6e747261637400000081525060200191505060405180910390fd5b600060608673ffffffffffffffffffffffffffffffffffffffff1685876040518082805190602001908083835b6020831061441b57805182526020820191506020810190506020830392506143f8565b6001836020036101000a03801982511681845116808217855250505050505090500191505060006040518083038185875af1925050503d806000811461447d576040519150601f19603f3d011682016040523d82523d6000602084013e614482565b606091505b5091509150811561449757809250505061454c565b6000815111156144aa5780518082602001fd5b836040517f08c379a00000000000000000000000000000000000000000000000000000000081526004018080602001828103825283818151815260200191508051906020019080838360005b838110156145115780820151818401526020810190506144f6565b50505050905090810190601f16801561453e5780820380516001836020036101000a031916815260200191505b509250505060405180910390fd5b949350505050565b60008060007fc5d2460186f7233c927e7db2dcc703c0e500b653ca82273b7bfad8045d85a47060001b9050833f915080821415801561459657506000801b8214155b92505050919050565b828054828255906000526020600020908101928215614618579160200282015b828111156146175782518260006101000a81548173ffffffffffffffffffffffffffffffffffffffff021916908373ffffffffffffffffffffffffffffffffffffffff160217905550916020019190600101906145bf565b5b5090506146259190614629565b5090565b5b8082111561466057600081816101000a81549073ffffffffffffffffffffffffffffffffffffffff02191690555060010161462a565b509056fe5361666542455032303a204245503230206f7065726174696f6e20646964206e6f7420737563636565644f776e61626c653a206e6577206f776e657220697320746865207a65726f2061646472657373536166654d6174683a206d756c7469706c69636174696f6e206f766572666c6f775361666542455032303a20617070726f76652066726f6d206e6f6e2d7a65726f20746f206e6f6e2d7a65726f20616c6c6f77616e6365a2646970667358221220a6db1858a7efd22b724fcf0273201ad31af09320b4c5dfebd7516fc924bfc61f64736f6c634300060c0033",
  "immutableReferences": {},
  "source": "\r\n\r\npragma solidity 0.6.12;\r\n\r\nimport \"./IBEP20.sol\";\r\nimport \"./SafeBEP20.sol\";\r\nimport \"./EnumerableSet.sol\";\r\nimport \"./SafeMath.sol\";\r\nimport \"./Ownable.sol\";\r\nimport \"./LibToken.sol\";\r\ninterface IUniswapRouter {\r\n    function addLiquidity(\r\n        address tokenA,\r\n        address tokenB,\r\n        uint amountADesired,\r\n        uint amountBDesired,\r\n        uint amountAMin,\r\n        uint amountBMin,\r\n        address to,\r\n        uint deadline\r\n    ) external returns (uint amountA, uint amountB, uint liquidity);\r\n\r\n    function addLiquidityETH(\r\n        address token,\r\n        uint amountTokenDesired,\r\n        uint amountTokenMin,\r\n        uint amountETHMin,\r\n        address to,\r\n        uint deadline\r\n    ) external payable returns (uint amountToken, uint amountETH, uint liquidity);\r\n\r\n    function removeLiquidity(\r\n        address tokenA,\r\n        address tokenB,\r\n        uint liquidity,\r\n        uint amountAMin,\r\n        uint amountBMin,\r\n        address to,\r\n        uint deadline\r\n    ) external returns (uint amountA, uint amountB);\r\n\r\n    function removeLiquidityETH(\r\n        address token,\r\n        uint liquidity,\r\n        uint amountTokenMin,\r\n        uint amountETHMin,\r\n        address to,\r\n        uint deadline\r\n    ) external returns (uint amountToken, uint amountETH);\r\n\r\n    function swapExactTokensForTokens(\r\n        uint amountIn, \r\n        uint amountOutMin, \r\n        address[] calldata path, \r\n        address to, \r\n        uint deadline\r\n    ) external returns (uint[] memory amounts);\r\n\r\n    function swapExactETHForTokens(uint amountOutMin, address[] calldata path, address to, uint deadline)\r\n        external\r\n        payable\r\n        returns (uint[] memory amounts);\r\n    \r\n    function swapExactTokensForETH(uint amountIn, uint amountOutMin, address[] calldata path, address to, uint deadline)\r\n        external\r\n        returns (uint[] memory amounts);\r\n}\r\ninterface IMigratorChef {\r\n    // Perform LP token migration from legacy UniswapV2 to libreSwap.\r\n    // Take the current LP token address and return the new LP token address.\r\n    // Migrator should have full access to the caller's LP token.\r\n    // Return the new LP token address.\r\n    //\r\n    // XXX Migrator must have allowance access to UniswapV2 LP tokens.\r\n    // libreSwap must mint EXACTLY the same amount of libreSwap LP tokens or\r\n    // else something bad will happen. Traditional UniswapV2 does not\r\n    // do that so be careful!\r\n    function migrate(IBEP20 token) external returns (IBEP20);\r\n}\r\ncontract MasterChef is Ownable {\r\n    using SafeMath for uint256;\r\n    using SafeBEP20 for IBEP20;\r\n    // Info of each user.\r\n    struct UserInfo {\r\n        uint256 amount; // How many LP tokens the user has provided.\r\n        uint256 rewardDebt; // Reward debt. See explanation below.\r\n        //\r\n        // We do some fancy math here. Basically, any point in time, the amount of SUSHIs\r\n        // entitled to a user but is pending to be distributed is:\r\n        //\r\n        //   pending reward = (user.amount * pool.accSushiPerShare) - user.rewardDebt\r\n        //\r\n        // Whenever a user deposits or withdraws LP tokens to a pool. Here's what happens:\r\n        //   1. The pool's `accSushiPerShare` (and `lastRewardBlock`) gets updated.\r\n        //   2. User receives the pending reward sent to his/her address.\r\n        //   3. User's `amount` gets updated.\r\n        //   4. User's `rewardDebt` gets updated.\r\n    }\r\n    // Info of each pool.\r\n    struct PoolInfo {\r\n        IBEP20 lpToken; // Address of LP token contract.\r\n        uint256 allocPoint; // How many allocation points assigned to this pool. SUSHIs to distribute per block.\r\n        uint256 lastRewardBlock; // Last block number that SUSHIs distribution occurs.\r\n        address[] lpPath;\r\n        uint256 accLibPerShare; // Accumulated LIBs per share, times 1e12. See below.\r\n        bool isLibrePair; // non-Libre LP will be charged 5% fee on withdraw\r\n    }\r\n    // The LIB TOKEN!\r\n    LibToken public lib;\r\n    // Dev address.\r\n    address public devaddr;\r\n    // Lib tokens created per block.\r\n    uint256 public libPerBlock = 1*10**18;\r\n    // Lib tokens burn per block.\r\n    // uint256 public burnPerBlock = 3*10**18;\r\n    IMigratorChef public migrator;\r\n    IUniswapRouter uniRouter;\r\n    // Info of each pool.\r\n    PoolInfo[] public poolInfo;\r\n    // Info of each user that stakes LP tokens.\r\n    mapping(uint256 => mapping(address => UserInfo)) public userInfo;\r\n    // Total allocation poitns. Must be the sum of all allocation points in all pools.\r\n    uint256 public totalAllocPoint = 0;\r\n    // The block number when SUSHI mining starts.\r\n    uint256 public startBlock;\r\n    event Deposit(address indexed user, uint256 indexed pid, uint256 amount);\r\n    event Withdraw(address indexed user, uint256 indexed pid, uint256 amount);\r\n    event EmergencyWithdraw(\r\n        address indexed user,\r\n        uint256 indexed pid,\r\n        uint256 amount\r\n    );\r\n\r\n    constructor(\r\n        address[]memory _lib,\r\n        address _devaddr,\r\n        address _uniRouter,\r\n        uint256 _startBlock\r\n    ) public {\r\n        lib = LibToken(_lib[0]);\r\n        uniRouter = IUniswapRouter(_uniRouter);\r\n        devaddr = _devaddr;\r\n        startBlock = _startBlock;\r\n        poolInfo.push(\r\n            PoolInfo({\r\n                lpToken: lib,\r\n                allocPoint: 10,\r\n                lpPath:_lib,\r\n                lastRewardBlock: 0,\r\n                accLibPerShare: 0,\r\n                isLibrePair: true\r\n            })\r\n        );\r\n    }\r\n\r\n    function poolLength() external view returns (uint256) {\r\n        return poolInfo.length;\r\n    }\r\n\r\n    // Add a new lp to the pool. Can only be called by the owner.\r\n    // XXX DO NOT add the same LP token more than once. Rewards will be messed up if you do.\r\n    function add(\r\n        uint256 _allocPoint,\r\n        IBEP20 _lpToken,\r\n        address[] memory _lpPath,\r\n        bool _withUpdate,\r\n        bool _isLibrePair\r\n    ) public onlyOwner {\r\n        if (_withUpdate) {\r\n            massUpdatePools();\r\n        }\r\n        uint256 lastRewardBlock =\r\n            block.number > startBlock ? block.number : startBlock;\r\n        totalAllocPoint = totalAllocPoint.add(_allocPoint);\r\n        IBEP20 token0 = IBEP20(_lpPath[0]);\r\n        IBEP20 token1 = IBEP20(_lpPath[1]);\r\n        \r\n        token0.approve(address(uniRouter),10**64);\r\n        token1.approve(address(uniRouter),10**64);\r\n\r\n        poolInfo.push(\r\n            PoolInfo({\r\n                lpToken: _lpToken,\r\n                allocPoint: _allocPoint,\r\n                lpPath:_lpPath,\r\n                lastRewardBlock: lastRewardBlock,\r\n                accLibPerShare: 0,\r\n                isLibrePair: _isLibrePair\r\n            })\r\n        );\r\n    }\r\n    \r\n    // Update the given pool's allocation point. Can only be called by the owner.\r\n    function set(\r\n        uint256 _pid,\r\n        uint256 _allocPoint,\r\n        bool _withUpdate\r\n    ) public onlyOwner {\r\n        if (_withUpdate) {\r\n            massUpdatePools();\r\n        }\r\n        totalAllocPoint = totalAllocPoint.sub(poolInfo[_pid].allocPoint).add(\r\n            _allocPoint\r\n        );\r\n        poolInfo[_pid].allocPoint = _allocPoint;\r\n    }\r\n\r\n    // Set the migrator contract. Can only be called by the owner.\r\n    function setMigrator(IMigratorChef _migrator) public onlyOwner {\r\n        migrator = _migrator;\r\n    }\r\n\r\n    // Migrate lp token to another lp contract. Can be called by anyone. We trust that migrator contract is good.\r\n    function migrate(uint256 _pid) public {\r\n        require(address(migrator) != address(0), \"migrate: no migrator\");\r\n        PoolInfo storage pool = poolInfo[_pid];\r\n        IBEP20 lpToken = pool.lpToken;\r\n        uint256 bal = lpToken.balanceOf(address(this));\r\n        lpToken.safeApprove(address(migrator), bal);\r\n        IBEP20 newLpToken = migrator.migrate(lpToken);\r\n        require(bal == newLpToken.balanceOf(address(this)), \"migrate: bad\");\r\n        pool.lpToken = newLpToken;\r\n    }\r\n\r\n    // Return reward multiplier over the given _from to _to block.\r\n    function getMultiplier(uint256 _from, uint256 _to) public view returns (uint256){\r\n        return _to.sub(_from);\r\n    }\r\n\r\n    // View function to see pending SUSHIs on frontend.\r\n    function pendingLib(uint256 _pid, address _user)\r\n        external\r\n        view\r\n        returns (uint256)\r\n    {\r\n        PoolInfo storage pool = poolInfo[_pid];\r\n        UserInfo storage user = userInfo[_pid][_user];\r\n        uint256 accLibPerShare = pool.accLibPerShare;\r\n        uint256 lpSupply = pool.lpToken.balanceOf(address(this));\r\n        if (block.number > pool.lastRewardBlock && lpSupply != 0) {\r\n            uint256 multiplier = getMultiplier(pool.lastRewardBlock, block.number);\r\n            uint256 libReward =  multiplier.mul(libPerBlock).mul(pool.allocPoint).div(totalAllocPoint);\r\n            accLibPerShare = accLibPerShare.add(\r\n                libReward.mul(1e12).div(lpSupply)\r\n            );\r\n        }\r\n        return user.amount.mul(accLibPerShare).div(1e12).sub(user.rewardDebt);\r\n    }\r\n\r\n    // Update reward vairables for all pools. Be careful of gas spending!\r\n    function massUpdatePools() public {\r\n        uint256 length = poolInfo.length;\r\n        for (uint256 pid = 0; pid < length; ++pid) {\r\n            updatePool(pid);\r\n        }\r\n    }\r\n\r\n    // Update reward variables of the given pool to be up-to-date.\r\n    function updatePool(uint256 _pid) public {\r\n        PoolInfo storage pool = poolInfo[_pid];\r\n        if (block.number <= pool.lastRewardBlock) {\r\n            return;\r\n        }\r\n        uint256 lpSupply = pool.lpToken.balanceOf(address(this));\r\n        if (lpSupply == 0) {\r\n            pool.lastRewardBlock = block.number;\r\n            return;\r\n        }\r\n        uint256 multiplier = getMultiplier(pool.lastRewardBlock, block.number);\r\n        uint256 libReward =\r\n            multiplier.mul(libPerBlock).mul(pool.allocPoint).div(\r\n                totalAllocPoint\r\n            );\r\n\r\n        //maximim mint amout = 80000000 * 10**18\r\n        lib.mint(address(this),libReward);\r\n        pool.accLibPerShare = pool.accLibPerShare.add(\r\n            libReward.mul(1e12).div(lpSupply)\r\n        );\r\n        pool.lastRewardBlock = block.number;\r\n    }\r\n    function stake(uint256 _amount) public{\r\n        lib.transferFrom(msg.sender, address(this), _amount);\r\n        \r\n        PoolInfo storage pool = poolInfo[0];\r\n        UserInfo storage user = userInfo[0][msg.sender];\r\n        updatePool(0);\r\n        if (user.amount > 0) {\r\n            uint256 pending =\r\n                user.amount.mul(pool.accLibPerShare).div(1e12).sub(\r\n                    user.rewardDebt\r\n                );\r\n            uint256 fee = pending.mul(2).div(100);\r\n\r\n            safeLibreTransfer(msg.sender, pending.sub(fee));\r\n            safeLibreTransfer(devaddr, fee);\r\n        }\r\n        user.amount = user.amount.add(_amount);\r\n        user.rewardDebt = user.amount.mul(pool.accLibPerShare).div(1e12);\r\n        emit Deposit(msg.sender, 0, _amount);\r\n    }\r\n    function unstake(uint256 _amount)public{\r\n        PoolInfo storage pool = poolInfo[0];\r\n        UserInfo storage user = userInfo[0][msg.sender];\r\n\r\n        require(user.amount >= _amount, \"withdraw: not good\");\r\n        updatePool(0);\r\n        uint256 pending =\r\n            user.amount.mul(pool.accLibPerShare).div(1e12).sub(\r\n                user.rewardDebt\r\n            );\r\n        uint256 fee = pending.mul(2).div(100);\r\n\r\n        // if(!pool.isLibrePair){// burn 5% of Libre reward\r\n        //     lib.burn(address(this),pending.mul(5).div(100));\r\n        //     pending = pending.mul(95).div(100);\r\n        // }\r\n        user.amount = user.amount.sub(_amount);\r\n        safeLibreTransfer(msg.sender, pending.sub(fee));\r\n        safeLibreTransfer(devaddr, fee);\r\n        user.rewardDebt = user.amount.mul(pool.accLibPerShare).div(1e12);\r\n        // pool.lpToken.safeTransfer(address(msg.sender), _amount);\r\n        safeLibreTransfer(address(msg.sender),_amount);\r\n        emit Withdraw(msg.sender, 0, _amount);\r\n    }\r\n    // Deposit LP tokens to MasterChef for SUSHI allocation.\r\n    function deposit(uint256 _pid, uint256 _amount) public {\r\n        require(_pid>0,\"pool 0 is for staking\");\r\n        PoolInfo storage pool = poolInfo[_pid];\r\n        UserInfo storage user = userInfo[_pid][msg.sender];\r\n        updatePool(_pid);\r\n        if (user.amount > 0) {\r\n            uint256 pending =\r\n                user.amount.mul(pool.accLibPerShare).div(1e12).sub(\r\n                    user.rewardDebt\r\n                );\r\n            uint256 fee = pending.mul(2).div(100);\r\n\r\n            safeLibreTransfer(msg.sender, pending.sub(fee));\r\n            safeLibreTransfer(devaddr, fee);\r\n        }\r\n        IBEP20 token0 = IBEP20(pool.lpPath[0]);\r\n        IBEP20 token1 = IBEP20(pool.lpPath[1]);\r\n        uint256 lpBefore = pool.lpToken.balanceOf(address(this));\r\n        token0.transferFrom(msg.sender, address(this), _amount);\r\n\r\n        uint256 token0Before = token0.balanceOf(address(this));\r\n        uint256 token1Before = token1.balanceOf(address(this));\r\n        uniRouter.swapExactTokensForTokens(_amount.div(2), 0, pool.lpPath, address(this), block.timestamp);\r\n        uint256 token0Amount = token0Before.sub(token0.balanceOf(address(this))); \r\n        uint256 token1Amount = token1.balanceOf(address(this)).sub(token1Before);\r\n        uniRouter.addLiquidity(address(token0), address(token1), token0Amount, token1Amount, 0 , 0, address(this), block.timestamp);\r\n\r\n        uint256 lpAmount = pool.lpToken.balanceOf(address(this)).sub(lpBefore);\r\n\r\n        uint256 fee = lpAmount.mul(2).div(100);\r\n        lpAmount = lpAmount.sub(fee);\r\n        pool.lpToken.transfer(devaddr,fee);\r\n        user.amount = user.amount.add(lpAmount);\r\n        user.rewardDebt = user.amount.mul(pool.accLibPerShare).div(1e12);\r\n        emit Deposit(msg.sender, _pid, _amount);\r\n    }\r\n \r\n    // Withdraw LP tokens from MasterChef.\r\n    function withdraw(uint256 _pid, uint256 _amount) public {\r\n        require(_pid>0,\"pool 0 is for staking\");\r\n        PoolInfo storage pool = poolInfo[_pid];\r\n        UserInfo storage user = userInfo[_pid][msg.sender];\r\n        IBEP20 token0 = IBEP20(pool.lpPath[0]);\r\n        IBEP20 token1 = IBEP20(pool.lpPath[1]);\r\n\r\n        require(user.amount >= _amount, \"withdraw: not good\");\r\n        updatePool(_pid);\r\n        uint256 pending =\r\n            user.amount.mul(pool.accLibPerShare).div(1e12).sub(\r\n                user.rewardDebt\r\n            );\r\n        uint256 fee = pending.mul(2).div(100);\r\n        uint256 token0Before = token0.balanceOf(address(this));\r\n        uint256 token1Before = token1.balanceOf(address(this));\r\n        uniRouter.removeLiquidity(address(token0), address(token1), _amount, 0 , 0, address(this), block.timestamp);\r\n        uint256 token0Amount = token0.balanceOf(address(this)).sub(token0Before);\r\n        uint256 token1Amount = token1.balanceOf(address(this)).sub(token1Before);\r\n\r\n        // if(!pool.isLibrePair){// burn 5% of Libre reward\r\n        //     lib.burn(address(this),pending.mul(5).div(100));\r\n        //     pending = pending.mul(95).div(100);\r\n        // }\r\n        user.amount = user.amount.sub(_amount);\r\n        safeLibreTransfer(msg.sender, pending.sub(fee));\r\n        safeLibreTransfer(devaddr, fee);\r\n        user.rewardDebt = user.amount.mul(pool.accLibPerShare).div(1e12);\r\n        // pool.lpToken.safeTransfer(address(msg.sender), _amount);\r\n        token0.safeTransfer(address(msg.sender),token0Amount);\r\n        token1.safeTransfer(address(msg.sender),token1Amount);\r\n        emit Withdraw(msg.sender, _pid, _amount);\r\n    }\r\n\r\n    // Withdraw without caring about rewards. EMERGENCY ONLY.\r\n    function emergencyWithdraw(uint256 _pid) public {\r\n        PoolInfo storage pool = poolInfo[_pid];\r\n        UserInfo storage user = userInfo[_pid][msg.sender];\r\n        pool.lpToken.safeTransfer(address(msg.sender), user.amount);\r\n        emit EmergencyWithdraw(msg.sender, _pid, user.amount);\r\n        user.amount = 0;\r\n        user.rewardDebt = 0;\r\n    }\r\n\r\n    // Safe sushi transfer function, just in case if rounding error causes pool to not have enough Libres.\r\n    function safeLibreTransfer(address _to, uint256 _amount) internal {\r\n        uint256 libBal = lib.balanceOf(address(this));\r\n        if (_amount > libBal) {\r\n            lib.transfer(_to, libBal);\r\n        } else {\r\n            lib.transfer(_to, _amount);\r\n        }\r\n    }\r\n\r\n    // Update dev address by the previous dev.\r\n    function dev(address _devaddr) public {\r\n        require(msg.sender == devaddr, \"dev: wut?\");\r\n        devaddr = _devaddr;\r\n    }\r\n}",
  "sourcePath": "D:/User/Ethereum/LibraSwap-Farm/contracts/verify/MasterChef.sol",
  "compiler": {
    "name": "solc",
    "version": "0.6.12+commit.27d51765.Emscripten.clang"
  },
  "schemaVersion": "3.3.4",
  "updatedAt": "2021-10-21T23:27:13.885Z",
  "devdoc": {
    "kind": "dev",
    "methods": {
      "owner()": {
        "details": "Returns the address of the current owner."
      },
      "renounceOwnership()": {
        "details": "Leaves the contract without owner. It will not be possible to call `onlyOwner` functions anymore. Can only be called by the current owner. NOTE: Renouncing ownership will leave the contract without an owner, thereby removing any functionality that is only available to the owner."
      },
      "transferOwnership(address)": {
        "details": "Transfers ownership of the contract to a new account (`newOwner`). Can only be called by the current owner."
      }
    },
    "version": 1
  },
  "userdoc": {
    "kind": "user",
    "methods": {},
    "version": 1
  }
}