{
  "contractName": "MasterChef",
  "abi": [
    {
      "inputs": [
        {
          "internalType": "contract LibToken",
          "name": "_lib",
          "type": "address"
        },
        {
          "internalType": "address",
          "name": "_devaddr",
          "type": "address"
        },
        {
          "internalType": "address",
          "name": "_factory",
          "type": "address"
        },
        {
          "internalType": "uint256",
          "name": "_libPerBlock",
          "type": "uint256"
        },
        {
          "internalType": "uint256",
          "name": "_startBlock",
          "type": "uint256"
        },
        {
          "internalType": "uint256",
          "name": "_bonusEndBlock",
          "type": "uint256"
        }
      ],
      "stateMutability": "nonpayable",
      "type": "constructor"
    },
    {
      "anonymous": false,
      "inputs": [
        {
          "indexed": true,
          "internalType": "address",
          "name": "user",
          "type": "address"
        },
        {
          "indexed": true,
          "internalType": "uint256",
          "name": "pid",
          "type": "uint256"
        },
        {
          "indexed": false,
          "internalType": "uint256",
          "name": "amount",
          "type": "uint256"
        }
      ],
      "name": "Deposit",
      "type": "event"
    },
    {
      "anonymous": false,
      "inputs": [
        {
          "indexed": true,
          "internalType": "address",
          "name": "user",
          "type": "address"
        },
        {
          "indexed": true,
          "internalType": "uint256",
          "name": "pid",
          "type": "uint256"
        },
        {
          "indexed": false,
          "internalType": "uint256",
          "name": "amount",
          "type": "uint256"
        }
      ],
      "name": "EmergencyWithdraw",
      "type": "event"
    },
    {
      "anonymous": false,
      "inputs": [
        {
          "indexed": true,
          "internalType": "address",
          "name": "previousOwner",
          "type": "address"
        },
        {
          "indexed": true,
          "internalType": "address",
          "name": "newOwner",
          "type": "address"
        }
      ],
      "name": "OwnershipTransferred",
      "type": "event"
    },
    {
      "anonymous": false,
      "inputs": [
        {
          "indexed": true,
          "internalType": "address",
          "name": "user",
          "type": "address"
        },
        {
          "indexed": true,
          "internalType": "uint256",
          "name": "pid",
          "type": "uint256"
        },
        {
          "indexed": false,
          "internalType": "uint256",
          "name": "amount",
          "type": "uint256"
        }
      ],
      "name": "Withdraw",
      "type": "event"
    },
    {
      "inputs": [],
      "name": "BONUS_MULTIPLIER",
      "outputs": [
        {
          "internalType": "uint256",
          "name": "",
          "type": "uint256"
        }
      ],
      "stateMutability": "view",
      "type": "function"
    },
    {
      "inputs": [],
      "name": "bonusEndBlock",
      "outputs": [
        {
          "internalType": "uint256",
          "name": "",
          "type": "uint256"
        }
      ],
      "stateMutability": "view",
      "type": "function"
    },
    {
      "inputs": [],
      "name": "chef",
      "outputs": [
        {
          "internalType": "address",
          "name": "",
          "type": "address"
        }
      ],
      "stateMutability": "view",
      "type": "function"
    },
    {
      "inputs": [],
      "name": "devaddr",
      "outputs": [
        {
          "internalType": "address",
          "name": "",
          "type": "address"
        }
      ],
      "stateMutability": "view",
      "type": "function"
    },
    {
      "inputs": [],
      "name": "lib",
      "outputs": [
        {
          "internalType": "contract LibToken",
          "name": "",
          "type": "address"
        }
      ],
      "stateMutability": "view",
      "type": "function"
    },
    {
      "inputs": [],
      "name": "libPerBlock",
      "outputs": [
        {
          "internalType": "uint256",
          "name": "",
          "type": "uint256"
        }
      ],
      "stateMutability": "view",
      "type": "function"
    },
    {
      "inputs": [],
      "name": "migrator",
      "outputs": [
        {
          "internalType": "contract IMigratorChef",
          "name": "",
          "type": "address"
        }
      ],
      "stateMutability": "view",
      "type": "function"
    },
    {
      "inputs": [],
      "name": "owner",
      "outputs": [
        {
          "internalType": "address",
          "name": "",
          "type": "address"
        }
      ],
      "stateMutability": "view",
      "type": "function"
    },
    {
      "inputs": [
        {
          "internalType": "uint256",
          "name": "",
          "type": "uint256"
        }
      ],
      "name": "poolInfo",
      "outputs": [
        {
          "internalType": "contract IBEP20",
          "name": "lpToken",
          "type": "address"
        },
        {
          "internalType": "uint256",
          "name": "allocPoint",
          "type": "uint256"
        },
        {
          "internalType": "uint256",
          "name": "lastRewardBlock",
          "type": "uint256"
        },
        {
          "internalType": "uint256",
          "name": "accLibPerShare",
          "type": "uint256"
        },
        {
          "internalType": "bool",
          "name": "isLibraPair",
          "type": "bool"
        }
      ],
      "stateMutability": "view",
      "type": "function"
    },
    {
      "inputs": [],
      "name": "renounceOwnership",
      "outputs": [],
      "stateMutability": "nonpayable",
      "type": "function"
    },
    {
      "inputs": [
        {
          "internalType": "address",
          "name": "chef",
          "type": "address"
        }
      ],
      "name": "setChef",
      "outputs": [],
      "stateMutability": "nonpayable",
      "type": "function"
    },
    {
      "inputs": [],
      "name": "startBlock",
      "outputs": [
        {
          "internalType": "uint256",
          "name": "",
          "type": "uint256"
        }
      ],
      "stateMutability": "view",
      "type": "function"
    },
    {
      "inputs": [],
      "name": "totalAllocPoint",
      "outputs": [
        {
          "internalType": "uint256",
          "name": "",
          "type": "uint256"
        }
      ],
      "stateMutability": "view",
      "type": "function"
    },
    {
      "inputs": [
        {
          "internalType": "address",
          "name": "newOwner",
          "type": "address"
        }
      ],
      "name": "transferOwnership",
      "outputs": [],
      "stateMutability": "nonpayable",
      "type": "function"
    },
    {
      "inputs": [
        {
          "internalType": "uint256",
          "name": "",
          "type": "uint256"
        },
        {
          "internalType": "address",
          "name": "",
          "type": "address"
        }
      ],
      "name": "userInfo",
      "outputs": [
        {
          "internalType": "uint256",
          "name": "amount",
          "type": "uint256"
        },
        {
          "internalType": "uint256",
          "name": "rewardDebt",
          "type": "uint256"
        }
      ],
      "stateMutability": "view",
      "type": "function"
    },
    {
      "inputs": [],
      "name": "poolLength",
      "outputs": [
        {
          "internalType": "uint256",
          "name": "",
          "type": "uint256"
        }
      ],
      "stateMutability": "view",
      "type": "function"
    },
    {
      "inputs": [
        {
          "internalType": "uint256",
          "name": "_allocPoint",
          "type": "uint256"
        },
        {
          "internalType": "contract IBEP20",
          "name": "_lpToken",
          "type": "address"
        },
        {
          "internalType": "bool",
          "name": "_withUpdate",
          "type": "bool"
        },
        {
          "internalType": "bool",
          "name": "_isLibraPair",
          "type": "bool"
        }
      ],
      "name": "add",
      "outputs": [],
      "stateMutability": "nonpayable",
      "type": "function"
    },
    {
      "inputs": [
        {
          "internalType": "uint256",
          "name": "_pid",
          "type": "uint256"
        },
        {
          "internalType": "uint256",
          "name": "_allocPoint",
          "type": "uint256"
        },
        {
          "internalType": "bool",
          "name": "_withUpdate",
          "type": "bool"
        }
      ],
      "name": "set",
      "outputs": [],
      "stateMutability": "nonpayable",
      "type": "function"
    },
    {
      "inputs": [
        {
          "internalType": "contract IMigratorChef",
          "name": "_migrator",
          "type": "address"
        }
      ],
      "name": "setMigrator",
      "outputs": [],
      "stateMutability": "nonpayable",
      "type": "function"
    },
    {
      "inputs": [
        {
          "internalType": "uint256",
          "name": "_pid",
          "type": "uint256"
        }
      ],
      "name": "migrate",
      "outputs": [],
      "stateMutability": "nonpayable",
      "type": "function"
    },
    {
      "inputs": [
        {
          "internalType": "uint256",
          "name": "_from",
          "type": "uint256"
        },
        {
          "internalType": "uint256",
          "name": "_to",
          "type": "uint256"
        }
      ],
      "name": "getMultiplier",
      "outputs": [
        {
          "internalType": "uint256",
          "name": "",
          "type": "uint256"
        }
      ],
      "stateMutability": "view",
      "type": "function"
    },
    {
      "inputs": [
        {
          "internalType": "uint256",
          "name": "_pid",
          "type": "uint256"
        },
        {
          "internalType": "address",
          "name": "_user",
          "type": "address"
        }
      ],
      "name": "pendingLib",
      "outputs": [
        {
          "internalType": "uint256",
          "name": "",
          "type": "uint256"
        }
      ],
      "stateMutability": "view",
      "type": "function"
    },
    {
      "inputs": [],
      "name": "massUpdatePools",
      "outputs": [],
      "stateMutability": "nonpayable",
      "type": "function"
    },
    {
      "inputs": [
        {
          "internalType": "uint256",
          "name": "_pid",
          "type": "uint256"
        }
      ],
      "name": "updatePool",
      "outputs": [],
      "stateMutability": "nonpayable",
      "type": "function"
    },
    {
      "inputs": [
        {
          "internalType": "uint256",
          "name": "_pid",
          "type": "uint256"
        },
        {
          "internalType": "uint256",
          "name": "_amount",
          "type": "uint256"
        }
      ],
      "name": "deposit",
      "outputs": [],
      "stateMutability": "nonpayable",
      "type": "function"
    },
    {
      "inputs": [
        {
          "internalType": "uint256",
          "name": "_pid",
          "type": "uint256"
        },
        {
          "internalType": "uint256",
          "name": "_amount",
          "type": "uint256"
        }
      ],
      "name": "withdraw",
      "outputs": [],
      "stateMutability": "nonpayable",
      "type": "function"
    },
    {
      "inputs": [
        {
          "internalType": "uint256",
          "name": "_pid",
          "type": "uint256"
        }
      ],
      "name": "emergencyWithdraw",
      "outputs": [],
      "stateMutability": "nonpayable",
      "type": "function"
    },
    {
      "inputs": [
        {
          "internalType": "address",
          "name": "_devaddr",
          "type": "address"
        }
      ],
      "name": "dev",
      "outputs": [],
      "stateMutability": "nonpayable",
      "type": "function"
    }
  ],
  "bytecode": "0x608060405260006009553480156200001657600080fd5b506040516200315838038062003158833981810160405260c08110156200003c57600080fd5b81019080805190602001909291908051906020019092919080519060200190929190805190602001909291908051906020019092919080519060200190929190505050600062000091620001d260201b60201c565b9050806000806101000a81548173ffffffffffffffffffffffffffffffffffffffff021916908373ffffffffffffffffffffffffffffffffffffffff1602179055508073ffffffffffffffffffffffffffffffffffffffff16600073ffffffffffffffffffffffffffffffffffffffff167f8be0079c531659141344cd1fd0a4f28419497f9722a3daafe3b4186f6b6457e060405160405180910390a35085600260006101000a81548173ffffffffffffffffffffffffffffffffffffffff021916908373ffffffffffffffffffffffffffffffffffffffff16021790555084600360006101000a81548173ffffffffffffffffffffffffffffffffffffffff021916908373ffffffffffffffffffffffffffffffffffffffff160217905550826005819055508060048190555081600a81905550505050505050620001da565b600033905090565b612f6e80620001ea6000396000f3fe608060405234801561001057600080fd5b50600436106101c45760003560e01c8063715018a6116100f95780639381ff5811610097578063c507aeaa11610071578063c507aeaa146106c0578063d49e77cd14610726578063e2bbb1581461075a578063f2fde38b14610792576101c4565b80639381ff58146105d757806393f1a40b14610639578063b1700503146106a2576101c4565b80638d88a90e116100d35780638d88a90e146104df5780638da5cb5b146105235780638dbb1e3a1461055757806392801230146105a3576101c4565b8063715018a6146104835780637cd07e471461048d5780638aa28550146104c1576101c4565b8063441a3e701161016657806351eb05a61161014057806351eb05a6146103d95780635312ea8e14610407578063630b5ba11461043557806364482f791461043f576101c4565b8063441a3e7014610355578063454b06081461038d57806348cd4cb1146103bb576101c4565b806317caf6f1116101a257806317caf6f1146102a15780631aed6553146102bf5780631fc8bc5d146102dd57806323cf311814610311576101c4565b806304a89e57146101c9578063081e3eda1461020d5780631526fe271461022b575b600080fd5b61020b600480360360208110156101df57600080fd5b81019080803573ffffffffffffffffffffffffffffffffffffffff1690602001909291905050506107d6565b005b6102156108e2565b6040518082815260200191505060405180910390f35b6102576004803603602081101561024157600080fd5b81019080803590602001909291905050506108ef565b604051808673ffffffffffffffffffffffffffffffffffffffff16815260200185815260200184815260200183815260200182151581526020019550505050505060405180910390f35b6102a961095f565b6040518082815260200191505060405180910390f35b6102c7610965565b6040518082815260200191505060405180910390f35b6102e561096b565b604051808273ffffffffffffffffffffffffffffffffffffffff16815260200191505060405180910390f35b6103536004803603602081101561032757600080fd5b81019080803573ffffffffffffffffffffffffffffffffffffffff169060200190929190505050610995565b005b61038b6004803603604081101561036b57600080fd5b810190808035906020019092919080359060200190929190505050610aa1565b005b6103b9600480360360208110156103a357600080fd5b8101908080359060200190929190505050610dde565b005b6103c3611208565b6040518082815260200191505060405180910390f35b610405600480360360208110156103ef57600080fd5b810190808035906020019092919050505061120e565b005b6104336004803603602081101561041d57600080fd5b8101908080359060200190929190505050611451565b005b61043d611583565b005b6104816004803603606081101561045557600080fd5b8101908080359060200190929190803590602001909291908035151590602001909291905050506115b0565b005b61048b6116fa565b005b610495611880565b604051808273ffffffffffffffffffffffffffffffffffffffff16815260200191505060405180910390f35b6104c96118a6565b6040518082815260200191505060405180910390f35b610521600480360360208110156104f557600080fd5b81019080803573ffffffffffffffffffffffffffffffffffffffff1690602001909291905050506118ab565b005b61052b6119b2565b604051808273ffffffffffffffffffffffffffffffffffffffff16815260200191505060405180910390f35b61058d6004803603604081101561056d57600080fd5b8101908080359060200190929190803590602001909291905050506119db565b6040518082815260200191505060405180910390f35b6105ab611a0b565b604051808273ffffffffffffffffffffffffffffffffffffffff16815260200191505060405180910390f35b610623600480360360408110156105ed57600080fd5b8101908080359060200190929190803573ffffffffffffffffffffffffffffffffffffffff169060200190929190505050611a31565b6040518082815260200191505060405180910390f35b6106856004803603604081101561064f57600080fd5b8101908080359060200190929190803573ffffffffffffffffffffffffffffffffffffffff169060200190929190505050611c77565b604051808381526020018281526020019250505060405180910390f35b6106aa611ca8565b6040518082815260200191505060405180910390f35b610724600480360360808110156106d657600080fd5b8101908080359060200190929190803573ffffffffffffffffffffffffffffffffffffffff169060200190929190803515159060200190929190803515159060200190929190505050611cae565b005b61072e611eb0565b604051808273ffffffffffffffffffffffffffffffffffffffff16815260200191505060405180910390f35b6107906004803603604081101561077057600080fd5b810190808035906020019092919080359060200190929190505050611ed6565b005b6107d4600480360360208110156107a857600080fd5b81019080803573ffffffffffffffffffffffffffffffffffffffff169060200190929190505050612051565b005b6107de612125565b73ffffffffffffffffffffffffffffffffffffffff1660008054906101000a900473ffffffffffffffffffffffffffffffffffffffff1673ffffffffffffffffffffffffffffffffffffffff161461089e576040517f08c379a00000000000000000000000000000000000000000000000000000000081526004018080602001828103825260208152602001807f4f776e61626c653a2063616c6c6572206973206e6f7420746865206f776e657281525060200191505060405180910390fd5b80600160006101000a81548173ffffffffffffffffffffffffffffffffffffffff021916908373ffffffffffffffffffffffffffffffffffffffff16021790555050565b6000600780549050905090565b600781815481106108fc57fe5b90600052602060002090600502016000915090508060000160009054906101000a900473ffffffffffffffffffffffffffffffffffffffff16908060010154908060020154908060030154908060040160009054906101000a900460ff16905085565b60095481565b60045481565b6000600160009054906101000a900473ffffffffffffffffffffffffffffffffffffffff16905090565b61099d612125565b73ffffffffffffffffffffffffffffffffffffffff1660008054906101000a900473ffffffffffffffffffffffffffffffffffffffff1673ffffffffffffffffffffffffffffffffffffffff1614610a5d576040517f08c379a00000000000000000000000000000000000000000000000000000000081526004018080602001828103825260208152602001807f4f776e61626c653a2063616c6c6572206973206e6f7420746865206f776e657281525060200191505060405180910390fd5b80600660006101000a81548173ffffffffffffffffffffffffffffffffffffffff021916908373ffffffffffffffffffffffffffffffffffffffff16021790555050565b600060078381548110610ab057fe5b9060005260206000209060050201905060006008600085815260200190815260200160002060003373ffffffffffffffffffffffffffffffffffffffff1673ffffffffffffffffffffffffffffffffffffffff16815260200190815260200160002090508281600001541015610b8e576040517f08c379a00000000000000000000000000000000000000000000000000000000081526004018080602001828103825260128152602001807f77697468647261773a206e6f7420676f6f64000000000000000000000000000081525060200191505060405180910390fd5b610b978461120e565b6000610be18260010154610bd364e8d4a51000610bc58760030154876000015461212d90919063ffffffff16565b6121b390919063ffffffff16565b6121fd90919063ffffffff16565b90508260040160009054906101000a900460ff16610cd657600260009054906101000a900473ffffffffffffffffffffffffffffffffffffffff1673ffffffffffffffffffffffffffffffffffffffff1663b5e8cf02610c5e6064610c5060058661212d90919063ffffffff16565b6121b390919063ffffffff16565b6040518263ffffffff1660e01b815260040180828152602001915050600060405180830381600087803b158015610c9457600080fd5b505af1158015610ca8573d6000803e3d6000fd5b50505050610cd36064610cc5605f8461212d90919063ffffffff16565b6121b390919063ffffffff16565b90505b610ced8483600001546121fd90919063ffffffff16565b8260000181905550610cff3382612247565b610d3164e8d4a51000610d238560030154856000015461212d90919063ffffffff16565b6121b390919063ffffffff16565b8260010181905550610d8833858560000160009054906101000a900473ffffffffffffffffffffffffffffffffffffffff1673ffffffffffffffffffffffffffffffffffffffff166124c09092919063ffffffff16565b843373ffffffffffffffffffffffffffffffffffffffff167ff279e6a1f5e320cca91135676d9cb6e44ca8a08c0b88342bcdb1144f6511b568866040518082815260200191505060405180910390a35050505050565b600073ffffffffffffffffffffffffffffffffffffffff16600660009054906101000a900473ffffffffffffffffffffffffffffffffffffffff1673ffffffffffffffffffffffffffffffffffffffff161415610ea3576040517f08c379a00000000000000000000000000000000000000000000000000000000081526004018080602001828103825260148152602001807f6d6967726174653a206e6f206d69677261746f7200000000000000000000000081525060200191505060405180910390fd5b600060078281548110610eb257fe5b9060005260206000209060050201905060008160000160009054906101000a900473ffffffffffffffffffffffffffffffffffffffff16905060008173ffffffffffffffffffffffffffffffffffffffff166370a08231306040518263ffffffff1660e01b8152600401808273ffffffffffffffffffffffffffffffffffffffff16815260200191505060206040518083038186803b158015610f5457600080fd5b505afa158015610f68573d6000803e3d6000fd5b505050506040513d6020811015610f7e57600080fd5b81019080805190602001909291905050509050610fde600660009054906101000a900473ffffffffffffffffffffffffffffffffffffffff16828473ffffffffffffffffffffffffffffffffffffffff166125629092919063ffffffff16565b6000600660009054906101000a900473ffffffffffffffffffffffffffffffffffffffff1673ffffffffffffffffffffffffffffffffffffffff1663ce5494bb846040518263ffffffff1660e01b8152600401808273ffffffffffffffffffffffffffffffffffffffff168152602001915050602060405180830381600087803b15801561106b57600080fd5b505af115801561107f573d6000803e3d6000fd5b505050506040513d602081101561109557600080fd5b810190808051906020019092919050505090508073ffffffffffffffffffffffffffffffffffffffff166370a08231306040518263ffffffff1660e01b8152600401808273ffffffffffffffffffffffffffffffffffffffff16815260200191505060206040518083038186803b15801561110f57600080fd5b505afa158015611123573d6000803e3d6000fd5b505050506040513d602081101561113957600080fd5b810190808051906020019092919050505082146111be576040517f08c379a000000000000000000000000000000000000000000000000000000000815260040180806020018281038252600c8152602001807f6d6967726174653a20626164000000000000000000000000000000000000000081525060200191505060405180910390fd5b808460000160006101000a81548173ffffffffffffffffffffffffffffffffffffffff021916908373ffffffffffffffffffffffffffffffffffffffff1602179055505050505050565b600a5481565b60006007828154811061121d57fe5b906000526020600020906005020190508060020154431161123e575061144e565b60008160000160009054906101000a900473ffffffffffffffffffffffffffffffffffffffff1673ffffffffffffffffffffffffffffffffffffffff166370a08231306040518263ffffffff1660e01b8152600401808273ffffffffffffffffffffffffffffffffffffffff16815260200191505060206040518083038186803b1580156112cb57600080fd5b505afa1580156112df573d6000803e3d6000fd5b505050506040513d60208110156112f557600080fd5b81019080805190602001909291905050509050600081141561132157438260020181905550505061144e565b60006113318360020154436119db565b9050600061137460095461136686600101546113586005548761212d90919063ffffffff16565b61212d90919063ffffffff16565b6121b390919063ffffffff16565b9050600260009054906101000a900473ffffffffffffffffffffffffffffffffffffffff1673ffffffffffffffffffffffffffffffffffffffff1663174f57af6040518163ffffffff1660e01b8152600401600060405180830381600087803b1580156113e057600080fd5b505af11580156113f4573d6000803e3d6000fd5b505050506114386114258461141764e8d4a510008561212d90919063ffffffff16565b6121b390919063ffffffff16565b856003015461272790919063ffffffff16565b8460030181905550438460020181905550505050505b50565b60006007828154811061146057fe5b9060005260206000209060050201905060006008600084815260200190815260200160002060003373ffffffffffffffffffffffffffffffffffffffff1673ffffffffffffffffffffffffffffffffffffffff16815260200190815260200160002090506115173382600001548460000160009054906101000a900473ffffffffffffffffffffffffffffffffffffffff1673ffffffffffffffffffffffffffffffffffffffff166124c09092919063ffffffff16565b823373ffffffffffffffffffffffffffffffffffffffff167fbb757047c2b5f3974fe26b7c10f732e7bce710b0952a71082702781e62ae059583600001546040518082815260200191505060405180910390a36000816000018190555060008160010181905550505050565b6000600780549050905060005b818110156115ac576115a18161120e565b806001019050611590565b5050565b6115b8612125565b73ffffffffffffffffffffffffffffffffffffffff1660008054906101000a900473ffffffffffffffffffffffffffffffffffffffff1673ffffffffffffffffffffffffffffffffffffffff1614611678576040517f08c379a00000000000000000000000000000000000000000000000000000000081526004018080602001828103825260208152602001807f4f776e61626c653a2063616c6c6572206973206e6f7420746865206f776e657281525060200191505060405180910390fd5b801561168757611686611583565b5b6116cc826116be6007868154811061169b57fe5b9060005260206000209060050201600101546009546121fd90919063ffffffff16565b61272790919063ffffffff16565b60098190555081600784815481106116e057fe5b906000526020600020906005020160010181905550505050565b611702612125565b73ffffffffffffffffffffffffffffffffffffffff1660008054906101000a900473ffffffffffffffffffffffffffffffffffffffff1673ffffffffffffffffffffffffffffffffffffffff16146117c2576040517f08c379a00000000000000000000000000000000000000000000000000000000081526004018080602001828103825260208152602001807f4f776e61626c653a2063616c6c6572206973206e6f7420746865206f776e657281525060200191505060405180910390fd5b600073ffffffffffffffffffffffffffffffffffffffff1660008054906101000a900473ffffffffffffffffffffffffffffffffffffffff1673ffffffffffffffffffffffffffffffffffffffff167f8be0079c531659141344cd1fd0a4f28419497f9722a3daafe3b4186f6b6457e060405160405180910390a360008060006101000a81548173ffffffffffffffffffffffffffffffffffffffff021916908373ffffffffffffffffffffffffffffffffffffffff160217905550565b600660009054906101000a900473ffffffffffffffffffffffffffffffffffffffff1681565b600a81565b600360009054906101000a900473ffffffffffffffffffffffffffffffffffffffff1673ffffffffffffffffffffffffffffffffffffffff163373ffffffffffffffffffffffffffffffffffffffff161461196e576040517f08c379a00000000000000000000000000000000000000000000000000000000081526004018080602001828103825260098152602001807f6465763a207775743f000000000000000000000000000000000000000000000081525060200191505060405180910390fd5b80600360006101000a81548173ffffffffffffffffffffffffffffffffffffffff021916908373ffffffffffffffffffffffffffffffffffffffff16021790555050565b60008060009054906101000a900473ffffffffffffffffffffffffffffffffffffffff16905090565b6000611a03600a6119f585856121fd90919063ffffffff16565b61212d90919063ffffffff16565b905092915050565b600260009054906101000a900473ffffffffffffffffffffffffffffffffffffffff1681565b60008060078481548110611a4157fe5b9060005260206000209060050201905060006008600086815260200190815260200160002060008573ffffffffffffffffffffffffffffffffffffffff1673ffffffffffffffffffffffffffffffffffffffff168152602001908152602001600020905060008260030154905060008360000160009054906101000a900473ffffffffffffffffffffffffffffffffffffffff1673ffffffffffffffffffffffffffffffffffffffff166370a08231306040518263ffffffff1660e01b8152600401808273ffffffffffffffffffffffffffffffffffffffff16815260200191505060206040518083038186803b158015611b3b57600080fd5b505afa158015611b4f573d6000803e3d6000fd5b505050506040513d6020811015611b6557600080fd5b81019080805190602001909291905050509050836002015443118015611b8c575060008114155b15611c27576000611ba18560020154436119db565b90506000611be4600954611bd68860010154611bc86005548761212d90919063ffffffff16565b61212d90919063ffffffff16565b6121b390919063ffffffff16565b9050611c22611c1384611c0564e8d4a510008561212d90919063ffffffff16565b6121b390919063ffffffff16565b8561272790919063ffffffff16565b935050505b611c6b8360010154611c5d64e8d4a51000611c4f86886000015461212d90919063ffffffff16565b6121b390919063ffffffff16565b6121fd90919063ffffffff16565b94505050505092915050565b6008602052816000526040600020602052806000526040600020600091509150508060000154908060010154905082565b60055481565b611cb6612125565b73ffffffffffffffffffffffffffffffffffffffff1660008054906101000a900473ffffffffffffffffffffffffffffffffffffffff1673ffffffffffffffffffffffffffffffffffffffff1614611d76576040517f08c379a00000000000000000000000000000000000000000000000000000000081526004018080602001828103825260208152602001807f4f776e61626c653a2063616c6c6572206973206e6f7420746865206f776e657281525060200191505060405180910390fd5b8115611d8557611d84611583565b5b6000600a544311611d9857600a54611d9a565b435b9050611db18560095461272790919063ffffffff16565b60098190555060076040518060a001604052808673ffffffffffffffffffffffffffffffffffffffff16815260200187815260200183815260200160008152602001841515815250908060018154018082558091505060019003906000526020600020906005020160009091909190915060008201518160000160006101000a81548173ffffffffffffffffffffffffffffffffffffffff021916908373ffffffffffffffffffffffffffffffffffffffff16021790555060208201518160010155604082015181600201556060820151816003015560808201518160040160006101000a81548160ff02191690831515021790555050505050505050565b600360009054906101000a900473ffffffffffffffffffffffffffffffffffffffff1681565b600060078381548110611ee557fe5b9060005260206000209060050201905060006008600085815260200190815260200160002060003373ffffffffffffffffffffffffffffffffffffffff1673ffffffffffffffffffffffffffffffffffffffff1681526020019081526020016000209050611f528461120e565b611fa33330858560000160009054906101000a900473ffffffffffffffffffffffffffffffffffffffff1673ffffffffffffffffffffffffffffffffffffffff166127af909392919063ffffffff16565b611fba83826000015461272790919063ffffffff16565b8160000181905550611ff464e8d4a51000611fe68460030154846000015461212d90919063ffffffff16565b6121b390919063ffffffff16565b8160010181905550833373ffffffffffffffffffffffffffffffffffffffff167f90890809c654f11d6e72a28fa60149770a0d11ec6c92319d6ceb2bb0a4ea1a15856040518082815260200191505060405180910390a350505050565b612059612125565b73ffffffffffffffffffffffffffffffffffffffff1660008054906101000a900473ffffffffffffffffffffffffffffffffffffffff1673ffffffffffffffffffffffffffffffffffffffff1614612119576040517f08c379a00000000000000000000000000000000000000000000000000000000081526004018080602001828103825260208152602001807f4f776e61626c653a2063616c6c6572206973206e6f7420746865206f776e657281525060200191505060405180910390fd5b61212281612870565b50565b600033905090565b60008083141561214057600090506121ad565b600082840290508284828161215157fe5b04146121a8576040517f08c379a0000000000000000000000000000000000000000000000000000000008152600401808060200182810382526021815260200180612ee26021913960400191505060405180910390fd5b809150505b92915050565b60006121f583836040518060400160405280601a81526020017f536166654d6174683a206469766973696f6e206279207a65726f0000000000008152506129b3565b905092915050565b600061223f83836040518060400160405280601e81526020017f536166654d6174683a207375627472616374696f6e206f766572666c6f770000815250612a79565b905092915050565b6000600260009054906101000a900473ffffffffffffffffffffffffffffffffffffffff1673ffffffffffffffffffffffffffffffffffffffff166370a08231306040518263ffffffff1660e01b8152600401808273ffffffffffffffffffffffffffffffffffffffff16815260200191505060206040518083038186803b1580156122d257600080fd5b505afa1580156122e6573d6000803e3d6000fd5b505050506040513d60208110156122fc57600080fd5b81019080805190602001909291905050509050808211156123eb57600260009054906101000a900473ffffffffffffffffffffffffffffffffffffffff1673ffffffffffffffffffffffffffffffffffffffff1663a9059cbb84836040518363ffffffff1660e01b8152600401808373ffffffffffffffffffffffffffffffffffffffff16815260200182815260200192505050602060405180830381600087803b1580156123aa57600080fd5b505af11580156123be573d6000803e3d6000fd5b505050506040513d60208110156123d457600080fd5b8101908080519060200190929190505050506124bb565b600260009054906101000a900473ffffffffffffffffffffffffffffffffffffffff1673ffffffffffffffffffffffffffffffffffffffff1663a9059cbb84846040518363ffffffff1660e01b8152600401808373ffffffffffffffffffffffffffffffffffffffff16815260200182815260200192505050602060405180830381600087803b15801561247e57600080fd5b505af1158015612492573d6000803e3d6000fd5b505050506040513d60208110156124a857600080fd5b8101908080519060200190929190505050505b505050565b61255d8363a9059cbb60e01b8484604051602401808373ffffffffffffffffffffffffffffffffffffffff16815260200182815260200192505050604051602081830303815290604052907bffffffffffffffffffffffffffffffffffffffffffffffffffffffff19166020820180517bffffffffffffffffffffffffffffffffffffffffffffffffffffffff8381831617835250505050612b39565b505050565b6000811480612630575060008373ffffffffffffffffffffffffffffffffffffffff1663dd62ed3e30856040518363ffffffff1660e01b8152600401808373ffffffffffffffffffffffffffffffffffffffff1681526020018273ffffffffffffffffffffffffffffffffffffffff1681526020019250505060206040518083038186803b1580156125f357600080fd5b505afa158015612607573d6000803e3d6000fd5b505050506040513d602081101561261d57600080fd5b8101908080519060200190929190505050145b612685576040517f08c379a0000000000000000000000000000000000000000000000000000000008152600401808060200182810382526036815260200180612f036036913960400191505060405180910390fd5b6127228363095ea7b360e01b8484604051602401808373ffffffffffffffffffffffffffffffffffffffff16815260200182815260200192505050604051602081830303815290604052907bffffffffffffffffffffffffffffffffffffffffffffffffffffffff19166020820180517bffffffffffffffffffffffffffffffffffffffffffffffffffffffff8381831617835250505050612b39565b505050565b6000808284019050838110156127a5576040517f08c379a000000000000000000000000000000000000000000000000000000000815260040180806020018281038252601b8152602001807f536166654d6174683a206164646974696f6e206f766572666c6f77000000000081525060200191505060405180910390fd5b8091505092915050565b61286a846323b872dd60e01b858585604051602401808473ffffffffffffffffffffffffffffffffffffffff1681526020018373ffffffffffffffffffffffffffffffffffffffff1681526020018281526020019350505050604051602081830303815290604052907bffffffffffffffffffffffffffffffffffffffffffffffffffffffff19166020820180517bffffffffffffffffffffffffffffffffffffffffffffffffffffffff8381831617835250505050612b39565b50505050565b600073ffffffffffffffffffffffffffffffffffffffff168173ffffffffffffffffffffffffffffffffffffffff1614156128f6576040517f08c379a0000000000000000000000000000000000000000000000000000000008152600401808060200182810382526026815260200180612ebc6026913960400191505060405180910390fd5b8073ffffffffffffffffffffffffffffffffffffffff1660008054906101000a900473ffffffffffffffffffffffffffffffffffffffff1673ffffffffffffffffffffffffffffffffffffffff167f8be0079c531659141344cd1fd0a4f28419497f9722a3daafe3b4186f6b6457e060405160405180910390a3806000806101000a81548173ffffffffffffffffffffffffffffffffffffffff021916908373ffffffffffffffffffffffffffffffffffffffff16021790555050565b60008083118290612a5f576040517f08c379a00000000000000000000000000000000000000000000000000000000081526004018080602001828103825283818151815260200191508051906020019080838360005b83811015612a24578082015181840152602081019050612a09565b50505050905090810190601f168015612a515780820380516001836020036101000a031916815260200191505b509250505060405180910390fd5b506000838581612a6b57fe5b049050809150509392505050565b6000838311158290612b26576040517f08c379a00000000000000000000000000000000000000000000000000000000081526004018080602001828103825283818151815260200191508051906020019080838360005b83811015612aeb578082015181840152602081019050612ad0565b50505050905090810190601f168015612b185780820380516001836020036101000a031916815260200191505b509250505060405180910390fd5b5060008385039050809150509392505050565b6060612b9b826040518060400160405280602081526020017f5361666542455032303a206c6f772d6c6576656c2063616c6c206661696c65648152508573ffffffffffffffffffffffffffffffffffffffff16612c289092919063ffffffff16565b9050600081511115612c2357808060200190516020811015612bbc57600080fd5b8101908080519060200190929190505050612c22576040517f08c379a000000000000000000000000000000000000000000000000000000000815260040180806020018281038252602a815260200180612e92602a913960400191505060405180910390fd5b5b505050565b6060612c378484600085612c40565b90509392505050565b6060612c4b85612e46565b612cbd576040517f08c379a000000000000000000000000000000000000000000000000000000000815260040180806020018281038252601d8152602001807f416464726573733a2063616c6c20746f206e6f6e2d636f6e747261637400000081525060200191505060405180910390fd5b600060608673ffffffffffffffffffffffffffffffffffffffff1685876040518082805190602001908083835b60208310612d0d5780518252602082019150602081019050602083039250612cea565b6001836020036101000a03801982511681845116808217855250505050505090500191505060006040518083038185875af1925050503d8060008114612d6f576040519150601f19603f3d011682016040523d82523d6000602084013e612d74565b606091505b50915091508115612d89578092505050612e3e565b600081511115612d9c5780518082602001fd5b836040517f08c379a00000000000000000000000000000000000000000000000000000000081526004018080602001828103825283818151815260200191508051906020019080838360005b83811015612e03578082015181840152602081019050612de8565b50505050905090810190601f168015612e305780820380516001836020036101000a031916815260200191505b509250505060405180910390fd5b949350505050565b60008060007fc5d2460186f7233c927e7db2dcc703c0e500b653ca82273b7bfad8045d85a47060001b9050833f9150808214158015612e8857506000801b8214155b9250505091905056fe5361666542455032303a204245503230206f7065726174696f6e20646964206e6f7420737563636565644f776e61626c653a206e6577206f776e657220697320746865207a65726f2061646472657373536166654d6174683a206d756c7469706c69636174696f6e206f766572666c6f775361666542455032303a20617070726f76652066726f6d206e6f6e2d7a65726f20746f206e6f6e2d7a65726f20616c6c6f77616e6365a2646970667358221220dbfa6ef0c881543b0848f5b08db9e2a1c29463efdbba2b33feed0754851b630064736f6c634300060c0033",
  "immutableReferences": {},
  "source": "\r\n\r\npragma solidity 0.6.12;\r\n\r\nimport \"./token/BEP20/IBEP20.sol\";\r\nimport \"./token/BEP20/SafeBEP20.sol\";\r\nimport \"./utils/EnumerableSet.sol\";\r\nimport \"./math/SafeMath.sol\";\r\nimport \"./access/Ownable.sol\";\r\nimport \"./LibToken.sol\";\r\n\r\ninterface IMigratorChef {\r\n    // Perform LP token migration from legacy UniswapV2 to libraSwap.\r\n    // Take the current LP token address and return the new LP token address.\r\n    // Migrator should have full access to the caller's LP token.\r\n    // Return the new LP token address.\r\n    //\r\n    // XXX Migrator must have allowance access to UniswapV2 LP tokens.\r\n    // libraSwap must mint EXACTLY the same amount of libraSwap LP tokens or\r\n    // else something bad will happen. Traditional UniswapV2 does not\r\n    // do that so be careful!\r\n    function migrate(IBEP20 token) external returns (IBEP20);\r\n}\r\ncontract MasterChef is Ownable {\r\n    using SafeMath for uint256;\r\n    using SafeBEP20 for IBEP20;\r\n    // Info of each user.\r\n    struct UserInfo {\r\n        uint256 amount; // How many LP tokens the user has provided.\r\n        uint256 rewardDebt; // Reward debt. See explanation below.\r\n        //\r\n        // We do some fancy math here. Basically, any point in time, the amount of SUSHIs\r\n        // entitled to a user but is pending to be distributed is:\r\n        //\r\n        //   pending reward = (user.amount * pool.accSushiPerShare) - user.rewardDebt\r\n        //\r\n        // Whenever a user deposits or withdraws LP tokens to a pool. Here's what happens:\r\n        //   1. The pool's `accSushiPerShare` (and `lastRewardBlock`) gets updated.\r\n        //   2. User receives the pending reward sent to his/her address.\r\n        //   3. User's `amount` gets updated.\r\n        //   4. User's `rewardDebt` gets updated.\r\n    }\r\n    // Info of each pool.\r\n    struct PoolInfo {\r\n        IBEP20 lpToken; // Address of LP token contract.\r\n        uint256 allocPoint; // How many allocation points assigned to this pool. SUSHIs to distribute per block.\r\n        uint256 lastRewardBlock; // Last block number that SUSHIs distribution occurs.\r\n        uint256 accLibPerShare; // Accumulated LIBs per share, times 1e12. See below.\r\n        bool isLibraPair; // non-Libra LP will be charged 5% fee on withdraw\r\n    }\r\n    // The SUSHI TOKEN!\r\n    LibToken public lib;\r\n    // Dev address.\r\n    address public devaddr;\r\n    // Block number when bonus SUSHI period ends.\r\n    uint256 public bonusEndBlock;\r\n    // SUSHI tokens created per block.\r\n    uint256 public libPerBlock;\r\n    // The migrator contract. It has a lot of power. Can only be set through governance (owner).\r\n    IMigratorChef public migrator;\r\n    uint256 public constant BONUS_MULTIPLIER = 10;\r\n    // Info of each pool.\r\n    PoolInfo[] public poolInfo;\r\n    // Info of each user that stakes LP tokens.\r\n    mapping(uint256 => mapping(address => UserInfo)) public userInfo;\r\n    // Total allocation poitns. Must be the sum of all allocation points in all pools.\r\n    uint256 public totalAllocPoint = 0;\r\n    // The block number when SUSHI mining starts.\r\n    uint256 public startBlock;\r\n    event Deposit(address indexed user, uint256 indexed pid, uint256 amount);\r\n    event Withdraw(address indexed user, uint256 indexed pid, uint256 amount);\r\n    event EmergencyWithdraw(\r\n        address indexed user,\r\n        uint256 indexed pid,\r\n        uint256 amount\r\n    );\r\n\r\n    constructor(\r\n        LibToken _lib,\r\n        address _devaddr,\r\n        address _factory,\r\n        uint256 _libPerBlock,\r\n        uint256 _startBlock,\r\n        uint256 _bonusEndBlock\r\n    ) public {\r\n        lib = _lib;\r\n        devaddr = _devaddr;\r\n        // factory = _factory;\r\n        libPerBlock = _libPerBlock;\r\n        bonusEndBlock = _bonusEndBlock;\r\n        startBlock = _startBlock;\r\n    }\r\n\r\n    function poolLength() external view returns (uint256) {\r\n        return poolInfo.length;\r\n    }\r\n\r\n    // Add a new lp to the pool. Can only be called by the owner.\r\n    // XXX DO NOT add the same LP token more than once. Rewards will be messed up if you do.\r\n    function add(\r\n        uint256 _allocPoint,\r\n        IBEP20 _lpToken,\r\n        bool _withUpdate,\r\n        bool _isLibraPair\r\n    ) public onlyOwner {\r\n        if (_withUpdate) {\r\n            massUpdatePools();\r\n        }\r\n        uint256 lastRewardBlock =\r\n            block.number > startBlock ? block.number : startBlock;\r\n        totalAllocPoint = totalAllocPoint.add(_allocPoint);\r\n        poolInfo.push(\r\n            PoolInfo({\r\n                lpToken: _lpToken,\r\n                allocPoint: _allocPoint,\r\n                lastRewardBlock: lastRewardBlock,\r\n                accLibPerShare: 0,\r\n                isLibraPair: _isLibraPair\r\n            })\r\n        );\r\n    }\r\n\r\n    // Update the given pool's SUSHI allocation point. Can only be called by the owner.\r\n    function set(\r\n        uint256 _pid,\r\n        uint256 _allocPoint,\r\n        bool _withUpdate\r\n    ) public onlyOwner {\r\n        if (_withUpdate) {\r\n            massUpdatePools();\r\n        }\r\n        totalAllocPoint = totalAllocPoint.sub(poolInfo[_pid].allocPoint).add(\r\n            _allocPoint\r\n        );\r\n        poolInfo[_pid].allocPoint = _allocPoint;\r\n    }\r\n\r\n    // Set the migrator contract. Can only be called by the owner.\r\n    function setMigrator(IMigratorChef _migrator) public onlyOwner {\r\n        migrator = _migrator;\r\n    }\r\n\r\n    // Migrate lp token to another lp contract. Can be called by anyone. We trust that migrator contract is good.\r\n    function migrate(uint256 _pid) public {\r\n        require(address(migrator) != address(0), \"migrate: no migrator\");\r\n        PoolInfo storage pool = poolInfo[_pid];\r\n        IBEP20 lpToken = pool.lpToken;\r\n        uint256 bal = lpToken.balanceOf(address(this));\r\n        lpToken.safeApprove(address(migrator), bal);\r\n        IBEP20 newLpToken = migrator.migrate(lpToken);\r\n        require(bal == newLpToken.balanceOf(address(this)), \"migrate: bad\");\r\n        pool.lpToken = newLpToken;\r\n    }\r\n\r\n    // Return reward multiplier over the given _from to _to block.\r\n    function getMultiplier(uint256 _from, uint256 _to) public view returns (uint256){\r\n        return _to.sub(_from).mul(BONUS_MULTIPLIER);\r\n    }\r\n\r\n    // View function to see pending SUSHIs on frontend.\r\n    function pendingLib(uint256 _pid, address _user)\r\n        external\r\n        view\r\n        returns (uint256)\r\n    {\r\n        PoolInfo storage pool = poolInfo[_pid];\r\n        UserInfo storage user = userInfo[_pid][_user];\r\n        uint256 accLibPerShare = pool.accLibPerShare;\r\n        uint256 lpSupply = pool.lpToken.balanceOf(address(this));\r\n        if (block.number > pool.lastRewardBlock && lpSupply != 0) {\r\n            uint256 multiplier = getMultiplier(pool.lastRewardBlock, block.number);\r\n            uint256 libReward =  multiplier.mul(libPerBlock).mul(pool.allocPoint).div(totalAllocPoint);\r\n            accLibPerShare = accLibPerShare.add(\r\n                libReward.mul(1e12).div(lpSupply)\r\n            );\r\n        }\r\n        return user.amount.mul(accLibPerShare).div(1e12).sub(user.rewardDebt);\r\n    }\r\n\r\n    // Update reward vairables for all pools. Be careful of gas spending!\r\n    function massUpdatePools() public {\r\n        uint256 length = poolInfo.length;\r\n        for (uint256 pid = 0; pid < length; ++pid) {\r\n            updatePool(pid);\r\n        }\r\n    }\r\n\r\n    // Update reward variables of the given pool to be up-to-date.\r\n    function updatePool(uint256 _pid) public {\r\n        PoolInfo storage pool = poolInfo[_pid];\r\n        if (block.number <= pool.lastRewardBlock) {\r\n            return;\r\n        }\r\n        uint256 lpSupply = pool.lpToken.balanceOf(address(this));\r\n        if (lpSupply == 0) {\r\n            pool.lastRewardBlock = block.number;\r\n            return;\r\n        }\r\n        uint256 multiplier = getMultiplier(pool.lastRewardBlock, block.number);\r\n        uint256 libReward =\r\n            multiplier.mul(libPerBlock).mul(pool.allocPoint).div(\r\n                totalAllocPoint\r\n            );\r\n        //maximim mint amout = 80000000 * 10**18\r\n        lib.mintReward();\r\n        pool.accLibPerShare = pool.accLibPerShare.add(\r\n            libReward.mul(1e12).div(lpSupply)\r\n        );\r\n        pool.lastRewardBlock = block.number;\r\n    }\r\n\r\n    // Deposit LP tokens to MasterChef for SUSHI allocation.\r\n    function deposit(uint256 _pid, uint256 _amount) public {\r\n        PoolInfo storage pool = poolInfo[_pid];\r\n        UserInfo storage user = userInfo[_pid][msg.sender];\r\n        updatePool(_pid);\r\n        // if (user.amount > 0) {\r\n        //     uint256 pending =\r\n        //         user.amount.mul(pool.accLibPerShare).div(1e12).sub(\r\n        //             user.rewardDebt\r\n        //         );\r\n        //     safeLibraTransfer(msg.sender, pending);\r\n        // }\r\n        pool.lpToken.safeTransferFrom(\r\n            address(msg.sender),\r\n            address(this),\r\n            _amount\r\n        );\r\n        user.amount = user.amount.add(_amount);\r\n        user.rewardDebt = user.amount.mul(pool.accLibPerShare).div(1e12);\r\n        emit Deposit(msg.sender, _pid, _amount);\r\n    }\r\n \r\n    // Withdraw LP tokens from MasterChef.\r\n    function withdraw(uint256 _pid, uint256 _amount) public {\r\n        PoolInfo storage pool = poolInfo[_pid];\r\n        UserInfo storage user = userInfo[_pid][msg.sender];\r\n        require(user.amount >= _amount, \"withdraw: not good\");\r\n        updatePool(_pid);\r\n        uint256 pending =\r\n            user.amount.mul(pool.accLibPerShare).div(1e12).sub(\r\n                user.rewardDebt\r\n            );\r\n        if(!pool.isLibraPair){// burn 5% of Libra reward\r\n            lib.burnReward(pending.mul(5).div(100));\r\n            pending = pending.mul(95).div(100);\r\n        }\r\n        user.amount = user.amount.sub(_amount);\r\n        safeLibraTransfer(msg.sender, pending);\r\n        user.rewardDebt = user.amount.mul(pool.accLibPerShare).div(1e12);\r\n        pool.lpToken.safeTransfer(address(msg.sender), _amount);\r\n        emit Withdraw(msg.sender, _pid, _amount);\r\n    }\r\n\r\n    // Withdraw without caring about rewards. EMERGENCY ONLY.\r\n    function emergencyWithdraw(uint256 _pid) public {\r\n        PoolInfo storage pool = poolInfo[_pid];\r\n        UserInfo storage user = userInfo[_pid][msg.sender];\r\n        pool.lpToken.safeTransfer(address(msg.sender), user.amount);\r\n        emit EmergencyWithdraw(msg.sender, _pid, user.amount);\r\n        user.amount = 0;\r\n        user.rewardDebt = 0;\r\n    }\r\n\r\n    // Safe sushi transfer function, just in case if rounding error causes pool to not have enough Libras.\r\n    function safeLibraTransfer(address _to, uint256 _amount) internal {\r\n        uint256 libBal = lib.balanceOf(address(this));\r\n        if (_amount > libBal) {\r\n            lib.transfer(_to, libBal);\r\n        } else {\r\n            lib.transfer(_to, _amount);\r\n        }\r\n    }\r\n\r\n    // Update dev address by the previous dev.\r\n    function dev(address _devaddr) public {\r\n        require(msg.sender == devaddr, \"dev: wut?\");\r\n        devaddr = _devaddr;\r\n    }\r\n}",
  "sourcePath": "D:/User/Ethereum/LibraSwap-Farm/contracts/MasterChef.sol",
  "compiler": {
    "name": "solc",
    "version": "0.6.12+commit.27d51765.Emscripten.clang"
  },
  "schemaVersion": "3.3.4",
  "updatedAt": "2021-05-20T00:42:21.247Z",
  "devdoc": {
    "kind": "dev",
    "methods": {
      "owner()": {
        "details": "Returns the address of the current owner."
      },
      "renounceOwnership()": {
        "details": "Leaves the contract without owner. It will not be possible to call `onlyOwner` functions anymore. Can only be called by the current owner. NOTE: Renouncing ownership will leave the contract without an owner, thereby removing any functionality that is only available to the owner."
      },
      "transferOwnership(address)": {
        "details": "Transfers ownership of the contract to a new account (`newOwner`). Can only be called by the current owner."
      }
    },
    "version": 1
  },
  "userdoc": {
    "kind": "user",
    "methods": {},
    "version": 1
  }
}