{
  "contractName": "Multicall",
  "abi": [
    {
      "inputs": [
        {
          "components": [
            {
              "internalType": "address",
              "name": "target",
              "type": "address"
            },
            {
              "internalType": "bytes",
              "name": "callData",
              "type": "bytes"
            }
          ],
          "internalType": "struct Multicall.Call[]",
          "name": "calls",
          "type": "tuple[]"
        }
      ],
      "name": "aggregate",
      "outputs": [
        {
          "internalType": "uint256",
          "name": "blockNumber",
          "type": "uint256"
        },
        {
          "internalType": "bytes[]",
          "name": "returnData",
          "type": "bytes[]"
        }
      ],
      "stateMutability": "nonpayable",
      "type": "function"
    },
    {
      "inputs": [
        {
          "internalType": "address",
          "name": "addr",
          "type": "address"
        }
      ],
      "name": "getEthBalance",
      "outputs": [
        {
          "internalType": "uint256",
          "name": "balance",
          "type": "uint256"
        }
      ],
      "stateMutability": "view",
      "type": "function"
    },
    {
      "inputs": [
        {
          "internalType": "uint256",
          "name": "blockNumber",
          "type": "uint256"
        }
      ],
      "name": "getBlockHash",
      "outputs": [
        {
          "internalType": "bytes32",
          "name": "blockHash",
          "type": "bytes32"
        }
      ],
      "stateMutability": "view",
      "type": "function"
    },
    {
      "inputs": [],
      "name": "getLastBlockHash",
      "outputs": [
        {
          "internalType": "bytes32",
          "name": "blockHash",
          "type": "bytes32"
        }
      ],
      "stateMutability": "view",
      "type": "function"
    },
    {
      "inputs": [],
      "name": "getCurrentBlockTimestamp",
      "outputs": [
        {
          "internalType": "uint256",
          "name": "timestamp",
          "type": "uint256"
        }
      ],
      "stateMutability": "view",
      "type": "function"
    },
    {
      "inputs": [],
      "name": "getCurrentBlockDifficulty",
      "outputs": [
        {
          "internalType": "uint256",
          "name": "difficulty",
          "type": "uint256"
        }
      ],
      "stateMutability": "view",
      "type": "function"
    },
    {
      "inputs": [],
      "name": "getCurrentBlockGasLimit",
      "outputs": [
        {
          "internalType": "uint256",
          "name": "gaslimit",
          "type": "uint256"
        }
      ],
      "stateMutability": "view",
      "type": "function"
    },
    {
      "inputs": [],
      "name": "getCurrentBlockCoinbase",
      "outputs": [
        {
          "internalType": "address",
          "name": "coinbase",
          "type": "address"
        }
      ],
      "stateMutability": "view",
      "type": "function"
    }
  ],
  "bytecode": "0x608060405234801561001057600080fd5b506108c2806100206000396000f3fe608060405234801561001057600080fd5b50600436106100885760003560e01c806372425d9d1161005b57806372425d9d1461012a57806386d516e814610148578063a8b0574e14610166578063ee82ac5e1461018457610088565b80630f28c97d1461008d578063252dba42146100ab57806327e86d6e146100dc5780634d2301cc146100fa575b600080fd5b6100956101b4565b6040516100a29190610699565b60405180910390f35b6100c560048036038101906100c091906104c2565b6101bc565b6040516100d39291906106b4565b60405180910390f35b6100e46102f3565b6040516100f1919061067e565b60405180910390f35b610114600480360381019061010f9190610499565b6102ff565b6040516101219190610699565b60405180910390f35b610132610320565b60405161013f9190610699565b60405180910390f35b610150610328565b60405161015d9190610699565b60405180910390f35b61016e610330565b60405161017b9190610663565b60405180910390f35b61019e60048036038101906101999190610503565b610338565b6040516101ab919061067e565b60405180910390f35b600042905090565b60006060439150825167ffffffffffffffff811180156101db57600080fd5b5060405190808252806020026020018201604052801561020f57816020015b60608152602001906001900390816101fa5790505b50905060005b83518110156102ed576000606085838151811061022e57fe5b60200260200101516000015173ffffffffffffffffffffffffffffffffffffffff1686848151811061025c57fe5b602002602001015160200151604051610275919061064c565b6000604051808303816000865af19150503d80600081146102b2576040519150601f19603f3d011682016040523d82523d6000602084013e6102b7565b606091505b5091509150816102c657600080fd5b808484815181106102d357fe5b602002602001018190525050508080600101915050610215565b50915091565b60006001430340905090565b60008173ffffffffffffffffffffffffffffffffffffffff16319050919050565b600044905090565b600045905090565b600041905090565b600081409050919050565b6000813590506103528161085e565b92915050565b600082601f83011261036957600080fd5b813561037c61037782610711565b6106e4565b9150818183526020840193506020810190508360005b838110156103c257813586016103a88882610420565b845260208401935060208301925050600181019050610392565b5050505092915050565b600082601f8301126103dd57600080fd5b81356103f06103eb82610739565b6106e4565b9150808252602083016020830185838301111561040c57600080fd5b61041783828461080b565b50505092915050565b60006040828403121561043257600080fd5b61043c60406106e4565b9050600061044c84828501610343565b600083015250602082013567ffffffffffffffff81111561046c57600080fd5b610478848285016103cc565b60208301525092915050565b60008135905061049381610875565b92915050565b6000602082840312156104ab57600080fd5b60006104b984828501610343565b91505092915050565b6000602082840312156104d457600080fd5b600082013567ffffffffffffffff8111156104ee57600080fd5b6104fa84828501610358565b91505092915050565b60006020828403121561051557600080fd5b600061052384828501610484565b91505092915050565b600061053883836105d3565b905092915050565b610549816107c5565b82525050565b600061055a82610775565b6105648185610798565b93508360208202850161057685610765565b8060005b858110156105b25784840389528151610593858261052c565b945061059e8361078b565b925060208a0199505060018101905061057a565b50829750879550505050505092915050565b6105cd816107d7565b82525050565b60006105de82610780565b6105e881856107a9565b93506105f881856020860161081a565b6106018161084d565b840191505092915050565b600061061782610780565b61062181856107ba565b935061063181856020860161081a565b80840191505092915050565b61064681610801565b82525050565b6000610658828461060c565b915081905092915050565b60006020820190506106786000830184610540565b92915050565b600060208201905061069360008301846105c4565b92915050565b60006020820190506106ae600083018461063d565b92915050565b60006040820190506106c9600083018561063d565b81810360208301526106db818461054f565b90509392505050565b6000604051905081810181811067ffffffffffffffff8211171561070757600080fd5b8060405250919050565b600067ffffffffffffffff82111561072857600080fd5b602082029050602081019050919050565b600067ffffffffffffffff82111561075057600080fd5b601f19601f8301169050602081019050919050565b6000819050602082019050919050565b600081519050919050565b600081519050919050565b6000602082019050919050565b600082825260208201905092915050565b600082825260208201905092915050565b600081905092915050565b60006107d0826107e1565b9050919050565b6000819050919050565b600073ffffffffffffffffffffffffffffffffffffffff82169050919050565b6000819050919050565b82818337600083830152505050565b60005b8381101561083857808201518184015260208101905061081d565b83811115610847576000848401525b50505050565b6000601f19601f8301169050919050565b610867816107c5565b811461087257600080fd5b50565b61087e81610801565b811461088957600080fd5b5056fea26469706673582212201cec220eae48e898455869eeb8dea6c09823f9a64e7cc42770b17e7ae7dabf6264736f6c634300060c0033",
  "immutableReferences": {},
  "source": "pragma solidity >=0.5.0;\r\npragma experimental ABIEncoderV2;\r\n\r\n/// @title Multicall - Aggregate results from multiple read-only function calls\r\n/// @author Michael Elliot <mike@makerdao.com>\r\n/// @author Joshua Levine <joshua@makerdao.com>\r\n/// @author Nick Johnson <arachnid@notdot.net>\r\n\r\ncontract Multicall {\r\n    struct Call {\r\n        address target;\r\n        bytes callData;\r\n    }\r\n    function aggregate(Call[] memory calls) public returns (uint256 blockNumber, bytes[] memory returnData) {\r\n        blockNumber = block.number;\r\n        returnData = new bytes[](calls.length);\r\n        for(uint256 i = 0; i < calls.length; i++) {\r\n            (bool success, bytes memory ret) = calls[i].target.call(calls[i].callData);\r\n            require(success);\r\n            returnData[i] = ret;\r\n        }\r\n    }\r\n    // Helper functions\r\n    function getEthBalance(address addr) public view returns (uint256 balance) {\r\n        balance = addr.balance;\r\n    }\r\n    function getBlockHash(uint256 blockNumber) public view returns (bytes32 blockHash) {\r\n        blockHash = blockhash(blockNumber);\r\n    }\r\n    function getLastBlockHash() public view returns (bytes32 blockHash) {\r\n        blockHash = blockhash(block.number - 1);\r\n    }\r\n    function getCurrentBlockTimestamp() public view returns (uint256 timestamp) {\r\n        timestamp = block.timestamp;\r\n    }\r\n    function getCurrentBlockDifficulty() public view returns (uint256 difficulty) {\r\n        difficulty = block.difficulty;\r\n    }\r\n    function getCurrentBlockGasLimit() public view returns (uint256 gaslimit) {\r\n        gaslimit = block.gaslimit;\r\n    }\r\n    function getCurrentBlockCoinbase() public view returns (address coinbase) {\r\n        coinbase = block.coinbase;\r\n    }\r\n}",
  "sourcePath": "D:/User/Ethereum/LibraSwap-Farm/contracts/lib/Multicall.sol",
  "compiler": {
    "name": "solc",
    "version": "0.6.12+commit.27d51765.Emscripten.clang"
  },
  "schemaVersion": "3.3.4",
  "updatedAt": "2021-10-21T23:27:13.920Z",
  "devdoc": {
    "author": "Michael Elliot <mike@makerdao.com>Joshua Levine <joshua@makerdao.com>Nick Johnson <arachnid@notdot.net>",
    "kind": "dev",
    "methods": {},
    "title": "Multicall - Aggregate results from multiple read-only function calls",
    "version": 1
  },
  "userdoc": {
    "kind": "user",
    "methods": {},
    "version": 1
  }
}